{
	"storageFactory.sol": {
		"storageFactory": {
			"abi": [
				{
					"inputs": [],
					"name": "createSimpleStorageContract",
					"outputs": [],
					"stateMutability": "nonpayable",
					"type": "function"
				},
				{
					"inputs": [
						{
							"internalType": "uint256",
							"name": "",
							"type": "uint256"
						}
					],
					"name": "listOfStorageContracts",
					"outputs": [
						{
							"internalType": "contract SimpleStorage",
							"name": "",
							"type": "address"
						}
					],
					"stateMutability": "view",
					"type": "function"
				},
				{
					"inputs": [
						{
							"internalType": "uint256",
							"name": "_simpleStorageIndex",
							"type": "uint256"
						}
					],
					"name": "sfGet",
					"outputs": [
						{
							"internalType": "uint256",
							"name": "",
							"type": "uint256"
						}
					],
					"stateMutability": "view",
					"type": "function"
				},
				{
					"inputs": [
						{
							"internalType": "uint256",
							"name": "_simpleStorageIndex",
							"type": "uint256"
						},
						{
							"internalType": "uint256",
							"name": "_newSimpleStorageNumber",
							"type": "uint256"
						}
					],
					"name": "sfStore",
					"outputs": [],
					"stateMutability": "nonpayable",
					"type": "function"
				}
			],
			"devdoc": {
				"kind": "dev",
				"methods": {},
				"version": 1
			},
			"evm": {
				"assembly": "    /* \"storageFactory.sol\":117:745  contract storageFactory{... */\n  mstore(0x40, 0x80)\n  callvalue\n  dup1\n  iszero\n  tag_1\n  jumpi\n  0x00\n  dup1\n  revert\ntag_1:\n  pop\n  dataSize(sub_0)\n  dup1\n  dataOffset(sub_0)\n  0x00\n  codecopy\n  0x00\n  return\nstop\n\nsub_0: assembly {\n        /* \"storageFactory.sol\":117:745  contract storageFactory{... */\n      mstore(0x40, 0x80)\n      callvalue\n      dup1\n      iszero\n      tag_1\n      jumpi\n      0x00\n      dup1\n      revert\n    tag_1:\n      pop\n      jumpi(tag_2, lt(calldatasize, 0x04))\n      shr(0xe0, calldataload(0x00))\n      dup1\n      0x1563700f\n      eq\n      tag_3\n      jumpi\n      dup1\n      0x1dda6541\n      eq\n      tag_4\n      jumpi\n      dup1\n      0xb191af4e\n      eq\n      tag_5\n      jumpi\n      dup1\n      0xc5f19c20\n      eq\n      tag_6\n      jumpi\n    tag_2:\n      0x00\n      dup1\n      revert\n        /* \"storageFactory.sol\":401:580  function sfStore(uint256 _simpleStorageIndex, uint256 _newSimpleStorageNumber) public {... */\n    tag_3:\n      tag_7\n      0x04\n      dup1\n      calldatasize\n      sub\n      dup2\n      add\n      swap1\n      tag_8\n      swap2\n      swap1\n      tag_9\n      jump\t// in\n    tag_8:\n      tag_10\n      jump\t// in\n    tag_7:\n      stop\n        /* \"storageFactory.sol\":204:395  function createSimpleStorageContract() public {... */\n    tag_4:\n      tag_11\n      tag_12\n      jump\t// in\n    tag_11:\n      stop\n        /* \"storageFactory.sol\":149:194  SimpleStorage[] public listOfStorageContracts */\n    tag_5:\n      tag_13\n      0x04\n      dup1\n      calldatasize\n      sub\n      dup2\n      add\n      swap1\n      tag_14\n      swap2\n      swap1\n      tag_15\n      jump\t// in\n    tag_14:\n      tag_16\n      jump\t// in\n    tag_13:\n      mload(0x40)\n      tag_17\n      swap2\n      swap1\n      tag_18\n      jump\t// in\n    tag_17:\n      mload(0x40)\n      dup1\n      swap2\n      sub\n      swap1\n      return\n        /* \"storageFactory.sol\":586:740  function sfGet(uint256 _simpleStorageIndex) public view returns(uint256){... */\n    tag_6:\n      tag_19\n      0x04\n      dup1\n      calldatasize\n      sub\n      dup2\n      add\n      swap1\n      tag_20\n      swap2\n      swap1\n      tag_15\n      jump\t// in\n    tag_20:\n      tag_21\n      jump\t// in\n    tag_19:\n      mload(0x40)\n      tag_22\n      swap2\n      swap1\n      tag_23\n      jump\t// in\n    tag_22:\n      mload(0x40)\n      dup1\n      swap2\n      sub\n      swap1\n      return\n        /* \"storageFactory.sol\":401:580  function sfStore(uint256 _simpleStorageIndex, uint256 _newSimpleStorageNumber) public {... */\n    tag_10:\n        /* \"storageFactory.sol\":498:520  listOfStorageContracts */\n      0x00\n        /* \"storageFactory.sol\":521:540  _simpleStorageIndex */\n      dup3\n        /* \"storageFactory.sol\":498:541  listOfStorageContracts[_simpleStorageIndex] */\n      dup2\n      sload\n      dup2\n      lt\n      tag_25\n      jumpi\n      tag_26\n      tag_27\n      jump\t// in\n    tag_26:\n    tag_25:\n      swap1\n      0x00\n      mstore\n      keccak256(0x00, 0x20)\n      add\n      0x00\n      swap1\n      sload\n      swap1\n      0x0100\n      exp\n      swap1\n      div\n      0xffffffffffffffffffffffffffffffffffffffff\n      and\n        /* \"storageFactory.sol\":498:547  listOfStorageContracts[_simpleStorageIndex].store */\n      0xffffffffffffffffffffffffffffffffffffffff\n      and\n      0x6057361d\n        /* \"storageFactory.sol\":548:571  _newSimpleStorageNumber */\n      dup3\n        /* \"storageFactory.sol\":498:572  listOfStorageContracts[_simpleStorageIndex].store(_newSimpleStorageNumber) */\n      mload(0x40)\n      dup3\n      0xffffffff\n      and\n      0xe0\n      shl\n      dup2\n      mstore\n      0x04\n      add\n      tag_29\n      swap2\n      swap1\n      tag_23\n      jump\t// in\n    tag_29:\n      0x00\n      mload(0x40)\n      dup1\n      dup4\n      sub\n      dup2\n      0x00\n      dup8\n      dup1\n      extcodesize\n      iszero\n      dup1\n      iszero\n      tag_30\n      jumpi\n      0x00\n      dup1\n      revert\n    tag_30:\n      pop\n      gas\n      call\n      iszero\n      dup1\n      iszero\n      tag_32\n      jumpi\n      returndatasize\n      0x00\n      dup1\n      returndatacopy\n      revert(0x00, returndatasize)\n    tag_32:\n      pop\n      pop\n      pop\n      pop\n        /* \"storageFactory.sol\":401:580  function sfStore(uint256 _simpleStorageIndex, uint256 _newSimpleStorageNumber) public {... */\n      pop\n      pop\n      jump\t// out\n        /* \"storageFactory.sol\":204:395  function createSimpleStorageContract() public {... */\n    tag_12:\n        /* \"storageFactory.sol\":261:300  SimpleStorage newSimpleStorageContracts */\n      0x00\n        /* \"storageFactory.sol\":303:322  new SimpleStorage() */\n      mload(0x40)\n      tag_34\n      swap1\n      tag_35\n      jump\t// in\n    tag_34:\n      mload(0x40)\n      dup1\n      swap2\n      sub\n      swap1\n      0x00\n      create\n      dup1\n      iszero\n      dup1\n      iszero\n      tag_36\n      jumpi\n      returndatasize\n      0x00\n      dup1\n      returndatacopy\n      revert(0x00, returndatasize)\n    tag_36:\n      pop\n        /* \"storageFactory.sol\":261:322  SimpleStorage newSimpleStorageContracts = new SimpleStorage() */\n      swap1\n      pop\n        /* \"storageFactory.sol\":333:355  listOfStorageContracts */\n      0x00\n        /* \"storageFactory.sol\":361:386  newSimpleStorageContracts */\n      dup2\n        /* \"storageFactory.sol\":333:387  listOfStorageContracts.push(newSimpleStorageContracts) */\n      swap1\n      dup1\n      0x01\n      dup2\n      sload\n      add\n      dup1\n      dup3\n      sstore\n      dup1\n      swap2\n      pop\n      pop\n      0x01\n      swap1\n      sub\n      swap1\n      0x00\n      mstore\n      keccak256(0x00, 0x20)\n      add\n      0x00\n      swap1\n      swap2\n      swap1\n      swap2\n      swap1\n      swap2\n      0x0100\n      exp\n      dup2\n      sload\n      dup2\n      0xffffffffffffffffffffffffffffffffffffffff\n      mul\n      not\n      and\n      swap1\n      dup4\n      0xffffffffffffffffffffffffffffffffffffffff\n      and\n      mul\n      or\n      swap1\n      sstore\n      pop\n        /* \"storageFactory.sol\":250:395  {... */\n      pop\n        /* \"storageFactory.sol\":204:395  function createSimpleStorageContract() public {... */\n      jump\t// out\n        /* \"storageFactory.sol\":149:194  SimpleStorage[] public listOfStorageContracts */\n    tag_16:\n      0x00\n      dup2\n      dup2\n      sload\n      dup2\n      lt\n      tag_38\n      jumpi\n      0x00\n      dup1\n      revert\n    tag_38:\n      swap1\n      0x00\n      mstore\n      keccak256(0x00, 0x20)\n      add\n      0x00\n      swap2\n      pop\n      sload\n      swap1\n      0x0100\n      exp\n      swap1\n      div\n      0xffffffffffffffffffffffffffffffffffffffff\n      and\n      dup2\n      jump\t// out\n        /* \"storageFactory.sol\":586:740  function sfGet(uint256 _simpleStorageIndex) public view returns(uint256){... */\n    tag_21:\n        /* \"storageFactory.sol\":650:657  uint256 */\n      0x00\n        /* \"storageFactory.sol\":676:698  listOfStorageContracts */\n      dup1\n        /* \"storageFactory.sol\":699:718  _simpleStorageIndex */\n      dup3\n        /* \"storageFactory.sol\":676:719  listOfStorageContracts[_simpleStorageIndex] */\n      dup2\n      sload\n      dup2\n      lt\n      tag_41\n      jumpi\n      tag_42\n      tag_27\n      jump\t// in\n    tag_42:\n    tag_41:\n      swap1\n      0x00\n      mstore\n      keccak256(0x00, 0x20)\n      add\n      0x00\n      swap1\n      sload\n      swap1\n      0x0100\n      exp\n      swap1\n      div\n      0xffffffffffffffffffffffffffffffffffffffff\n      and\n        /* \"storageFactory.sol\":676:728  listOfStorageContracts[_simpleStorageIndex].retrieve */\n      0xffffffffffffffffffffffffffffffffffffffff\n      and\n      0x2e64cec1\n        /* \"storageFactory.sol\":676:730  listOfStorageContracts[_simpleStorageIndex].retrieve() */\n      mload(0x40)\n      dup2\n      0xffffffff\n      and\n      0xe0\n      shl\n      dup2\n      mstore\n      0x04\n      add\n      0x20\n      mload(0x40)\n      dup1\n      dup4\n      sub\n      dup2\n      dup7\n      gas\n      staticcall\n      iszero\n      dup1\n      iszero\n      tag_45\n      jumpi\n      returndatasize\n      0x00\n      dup1\n      returndatacopy\n      revert(0x00, returndatasize)\n    tag_45:\n      pop\n      pop\n      pop\n      pop\n      mload(0x40)\n      returndatasize\n      not(0x1f)\n      0x1f\n      dup3\n      add\n      and\n      dup3\n      add\n      dup1\n      0x40\n      mstore\n      pop\n      dup2\n      add\n      swap1\n      tag_46\n      swap2\n      swap1\n      tag_47\n      jump\t// in\n    tag_46:\n        /* \"storageFactory.sol\":669:730  return listOfStorageContracts[_simpleStorageIndex].retrieve() */\n      swap1\n      pop\n        /* \"storageFactory.sol\":586:740  function sfGet(uint256 _simpleStorageIndex) public view returns(uint256){... */\n      swap2\n      swap1\n      pop\n      jump\t// out\n    tag_35:\n      dataSize(sub_0)\n      dup1\n      dataOffset(sub_0)\n      dup4\n      codecopy\n      add\n      swap1\n      jump\t// out\n        /* \"#utility.yul\":88:205   */\n    tag_49:\n        /* \"#utility.yul\":197:198   */\n      0x00\n        /* \"#utility.yul\":194:195   */\n      dup1\n        /* \"#utility.yul\":187:199   */\n      revert\n        /* \"#utility.yul\":334:411   */\n    tag_51:\n        /* \"#utility.yul\":371:378   */\n      0x00\n        /* \"#utility.yul\":400:405   */\n      dup2\n        /* \"#utility.yul\":389:405   */\n      swap1\n      pop\n        /* \"#utility.yul\":334:411   */\n      swap2\n      swap1\n      pop\n      jump\t// out\n        /* \"#utility.yul\":417:539   */\n    tag_52:\n        /* \"#utility.yul\":490:514   */\n      tag_68\n        /* \"#utility.yul\":508:513   */\n      dup2\n        /* \"#utility.yul\":490:514   */\n      tag_51\n      jump\t// in\n    tag_68:\n        /* \"#utility.yul\":483:488   */\n      dup2\n        /* \"#utility.yul\":480:515   */\n      eq\n        /* \"#utility.yul\":470:533   */\n      tag_69\n      jumpi\n        /* \"#utility.yul\":529:530   */\n      0x00\n        /* \"#utility.yul\":526:527   */\n      dup1\n        /* \"#utility.yul\":519:531   */\n      revert\n        /* \"#utility.yul\":470:533   */\n    tag_69:\n        /* \"#utility.yul\":417:539   */\n      pop\n      jump\t// out\n        /* \"#utility.yul\":545:684   */\n    tag_53:\n        /* \"#utility.yul\":591:596   */\n      0x00\n        /* \"#utility.yul\":629:635   */\n      dup2\n        /* \"#utility.yul\":616:636   */\n      calldataload\n        /* \"#utility.yul\":607:636   */\n      swap1\n      pop\n        /* \"#utility.yul\":645:678   */\n      tag_71\n        /* \"#utility.yul\":672:677   */\n      dup2\n        /* \"#utility.yul\":645:678   */\n      tag_52\n      jump\t// in\n    tag_71:\n        /* \"#utility.yul\":545:684   */\n      swap3\n      swap2\n      pop\n      pop\n      jump\t// out\n        /* \"#utility.yul\":690:1164   */\n    tag_9:\n        /* \"#utility.yul\":758:764   */\n      0x00\n        /* \"#utility.yul\":766:772   */\n      dup1\n        /* \"#utility.yul\":815:817   */\n      0x40\n        /* \"#utility.yul\":803:812   */\n      dup4\n        /* \"#utility.yul\":794:801   */\n      dup6\n        /* \"#utility.yul\":790:813   */\n      sub\n        /* \"#utility.yul\":786:818   */\n      slt\n        /* \"#utility.yul\":783:902   */\n      iszero\n      tag_73\n      jumpi\n        /* \"#utility.yul\":821:900   */\n      tag_74\n      tag_49\n      jump\t// in\n    tag_74:\n        /* \"#utility.yul\":783:902   */\n    tag_73:\n        /* \"#utility.yul\":941:942   */\n      0x00\n        /* \"#utility.yul\":966:1019   */\n      tag_75\n        /* \"#utility.yul\":1011:1018   */\n      dup6\n        /* \"#utility.yul\":1002:1008   */\n      dup3\n        /* \"#utility.yul\":991:1000   */\n      dup7\n        /* \"#utility.yul\":987:1009   */\n      add\n        /* \"#utility.yul\":966:1019   */\n      tag_53\n      jump\t// in\n    tag_75:\n        /* \"#utility.yul\":956:1019   */\n      swap3\n      pop\n        /* \"#utility.yul\":912:1029   */\n      pop\n        /* \"#utility.yul\":1068:1070   */\n      0x20\n        /* \"#utility.yul\":1094:1147   */\n      tag_76\n        /* \"#utility.yul\":1139:1146   */\n      dup6\n        /* \"#utility.yul\":1130:1136   */\n      dup3\n        /* \"#utility.yul\":1119:1128   */\n      dup7\n        /* \"#utility.yul\":1115:1137   */\n      add\n        /* \"#utility.yul\":1094:1147   */\n      tag_53\n      jump\t// in\n    tag_76:\n        /* \"#utility.yul\":1084:1147   */\n      swap2\n      pop\n        /* \"#utility.yul\":1039:1157   */\n      pop\n        /* \"#utility.yul\":690:1164   */\n      swap3\n      pop\n      swap3\n      swap1\n      pop\n      jump\t// out\n        /* \"#utility.yul\":1170:1499   */\n    tag_15:\n        /* \"#utility.yul\":1229:1235   */\n      0x00\n        /* \"#utility.yul\":1278:1280   */\n      0x20\n        /* \"#utility.yul\":1266:1275   */\n      dup3\n        /* \"#utility.yul\":1257:1264   */\n      dup5\n        /* \"#utility.yul\":1253:1276   */\n      sub\n        /* \"#utility.yul\":1249:1281   */\n      slt\n        /* \"#utility.yul\":1246:1365   */\n      iszero\n      tag_78\n      jumpi\n        /* \"#utility.yul\":1284:1363   */\n      tag_79\n      tag_49\n      jump\t// in\n    tag_79:\n        /* \"#utility.yul\":1246:1365   */\n    tag_78:\n        /* \"#utility.yul\":1404:1405   */\n      0x00\n        /* \"#utility.yul\":1429:1482   */\n      tag_80\n        /* \"#utility.yul\":1474:1481   */\n      dup5\n        /* \"#utility.yul\":1465:1471   */\n      dup3\n        /* \"#utility.yul\":1454:1463   */\n      dup6\n        /* \"#utility.yul\":1450:1472   */\n      add\n        /* \"#utility.yul\":1429:1482   */\n      tag_53\n      jump\t// in\n    tag_80:\n        /* \"#utility.yul\":1419:1482   */\n      swap2\n      pop\n        /* \"#utility.yul\":1375:1492   */\n      pop\n        /* \"#utility.yul\":1170:1499   */\n      swap3\n      swap2\n      pop\n      pop\n      jump\t// out\n        /* \"#utility.yul\":1505:1631   */\n    tag_54:\n        /* \"#utility.yul\":1542:1549   */\n      0x00\n        /* \"#utility.yul\":1582:1624   */\n      0xffffffffffffffffffffffffffffffffffffffff\n        /* \"#utility.yul\":1575:1580   */\n      dup3\n        /* \"#utility.yul\":1571:1625   */\n      and\n        /* \"#utility.yul\":1560:1625   */\n      swap1\n      pop\n        /* \"#utility.yul\":1505:1631   */\n      swap2\n      swap1\n      pop\n      jump\t// out\n        /* \"#utility.yul\":1637:1697   */\n    tag_55:\n        /* \"#utility.yul\":1665:1668   */\n      0x00\n        /* \"#utility.yul\":1686:1691   */\n      dup2\n        /* \"#utility.yul\":1679:1691   */\n      swap1\n      pop\n        /* \"#utility.yul\":1637:1697   */\n      swap2\n      swap1\n      pop\n      jump\t// out\n        /* \"#utility.yul\":1703:1845   */\n    tag_56:\n        /* \"#utility.yul\":1753:1762   */\n      0x00\n        /* \"#utility.yul\":1786:1839   */\n      tag_84\n        /* \"#utility.yul\":1804:1838   */\n      tag_85\n        /* \"#utility.yul\":1813:1837   */\n      tag_86\n        /* \"#utility.yul\":1831:1836   */\n      dup5\n        /* \"#utility.yul\":1813:1837   */\n      tag_54\n      jump\t// in\n    tag_86:\n        /* \"#utility.yul\":1804:1838   */\n      tag_55\n      jump\t// in\n    tag_85:\n        /* \"#utility.yul\":1786:1839   */\n      tag_54\n      jump\t// in\n    tag_84:\n        /* \"#utility.yul\":1773:1839   */\n      swap1\n      pop\n        /* \"#utility.yul\":1703:1845   */\n      swap2\n      swap1\n      pop\n      jump\t// out\n        /* \"#utility.yul\":1851:1977   */\n    tag_57:\n        /* \"#utility.yul\":1901:1910   */\n      0x00\n        /* \"#utility.yul\":1934:1971   */\n      tag_88\n        /* \"#utility.yul\":1965:1970   */\n      dup3\n        /* \"#utility.yul\":1934:1971   */\n      tag_56\n      jump\t// in\n    tag_88:\n        /* \"#utility.yul\":1921:1971   */\n      swap1\n      pop\n        /* \"#utility.yul\":1851:1977   */\n      swap2\n      swap1\n      pop\n      jump\t// out\n        /* \"#utility.yul\":1983:2129   */\n    tag_58:\n        /* \"#utility.yul\":2053:2062   */\n      0x00\n        /* \"#utility.yul\":2086:2123   */\n      tag_90\n        /* \"#utility.yul\":2117:2122   */\n      dup3\n        /* \"#utility.yul\":2086:2123   */\n      tag_57\n      jump\t// in\n    tag_90:\n        /* \"#utility.yul\":2073:2123   */\n      swap1\n      pop\n        /* \"#utility.yul\":1983:2129   */\n      swap2\n      swap1\n      pop\n      jump\t// out\n        /* \"#utility.yul\":2135:2306   */\n    tag_59:\n        /* \"#utility.yul\":2242:2299   */\n      tag_92\n        /* \"#utility.yul\":2293:2298   */\n      dup2\n        /* \"#utility.yul\":2242:2299   */\n      tag_58\n      jump\t// in\n    tag_92:\n        /* \"#utility.yul\":2237:2240   */\n      dup3\n        /* \"#utility.yul\":2230:2300   */\n      mstore\n        /* \"#utility.yul\":2135:2306   */\n      pop\n      pop\n      jump\t// out\n        /* \"#utility.yul\":2312:2574   */\n    tag_18:\n        /* \"#utility.yul\":2425:2429   */\n      0x00\n        /* \"#utility.yul\":2463:2465   */\n      0x20\n        /* \"#utility.yul\":2452:2461   */\n      dup3\n        /* \"#utility.yul\":2448:2466   */\n      add\n        /* \"#utility.yul\":2440:2466   */\n      swap1\n      pop\n        /* \"#utility.yul\":2476:2567   */\n      tag_94\n        /* \"#utility.yul\":2564:2565   */\n      0x00\n        /* \"#utility.yul\":2553:2562   */\n      dup4\n        /* \"#utility.yul\":2549:2566   */\n      add\n        /* \"#utility.yul\":2540:2546   */\n      dup5\n        /* \"#utility.yul\":2476:2567   */\n      tag_59\n      jump\t// in\n    tag_94:\n        /* \"#utility.yul\":2312:2574   */\n      swap3\n      swap2\n      pop\n      pop\n      jump\t// out\n        /* \"#utility.yul\":2580:2698   */\n    tag_60:\n        /* \"#utility.yul\":2667:2691   */\n      tag_96\n        /* \"#utility.yul\":2685:2690   */\n      dup2\n        /* \"#utility.yul\":2667:2691   */\n      tag_51\n      jump\t// in\n    tag_96:\n        /* \"#utility.yul\":2662:2665   */\n      dup3\n        /* \"#utility.yul\":2655:2692   */\n      mstore\n        /* \"#utility.yul\":2580:2698   */\n      pop\n      pop\n      jump\t// out\n        /* \"#utility.yul\":2704:2926   */\n    tag_23:\n        /* \"#utility.yul\":2797:2801   */\n      0x00\n        /* \"#utility.yul\":2835:2837   */\n      0x20\n        /* \"#utility.yul\":2824:2833   */\n      dup3\n        /* \"#utility.yul\":2820:2838   */\n      add\n        /* \"#utility.yul\":2812:2838   */\n      swap1\n      pop\n        /* \"#utility.yul\":2848:2919   */\n      tag_98\n        /* \"#utility.yul\":2916:2917   */\n      0x00\n        /* \"#utility.yul\":2905:2914   */\n      dup4\n        /* \"#utility.yul\":2901:2918   */\n      add\n        /* \"#utility.yul\":2892:2898   */\n      dup5\n        /* \"#utility.yul\":2848:2919   */\n      tag_60\n      jump\t// in\n    tag_98:\n        /* \"#utility.yul\":2704:2926   */\n      swap3\n      swap2\n      pop\n      pop\n      jump\t// out\n        /* \"#utility.yul\":2932:3112   */\n    tag_27:\n        /* \"#utility.yul\":2980:3057   */\n      0x4e487b7100000000000000000000000000000000000000000000000000000000\n        /* \"#utility.yul\":2977:2978   */\n      0x00\n        /* \"#utility.yul\":2970:3058   */\n      mstore\n        /* \"#utility.yul\":3077:3081   */\n      0x32\n        /* \"#utility.yul\":3074:3075   */\n      0x04\n        /* \"#utility.yul\":3067:3082   */\n      mstore\n        /* \"#utility.yul\":3101:3105   */\n      0x24\n        /* \"#utility.yul\":3098:3099   */\n      0x00\n        /* \"#utility.yul\":3091:3106   */\n      revert\n        /* \"#utility.yul\":3118:3261   */\n    tag_61:\n        /* \"#utility.yul\":3175:3180   */\n      0x00\n        /* \"#utility.yul\":3206:3212   */\n      dup2\n        /* \"#utility.yul\":3200:3213   */\n      mload\n        /* \"#utility.yul\":3191:3213   */\n      swap1\n      pop\n        /* \"#utility.yul\":3222:3255   */\n      tag_101\n        /* \"#utility.yul\":3249:3254   */\n      dup2\n        /* \"#utility.yul\":3222:3255   */\n      tag_52\n      jump\t// in\n    tag_101:\n        /* \"#utility.yul\":3118:3261   */\n      swap3\n      swap2\n      pop\n      pop\n      jump\t// out\n        /* \"#utility.yul\":3267:3618   */\n    tag_47:\n        /* \"#utility.yul\":3337:3343   */\n      0x00\n        /* \"#utility.yul\":3386:3388   */\n      0x20\n        /* \"#utility.yul\":3374:3383   */\n      dup3\n        /* \"#utility.yul\":3365:3372   */\n      dup5\n        /* \"#utility.yul\":3361:3384   */\n      sub\n        /* \"#utility.yul\":3357:3389   */\n      slt\n        /* \"#utility.yul\":3354:3473   */\n      iszero\n      tag_103\n      jumpi\n        /* \"#utility.yul\":3392:3471   */\n      tag_104\n      tag_49\n      jump\t// in\n    tag_104:\n        /* \"#utility.yul\":3354:3473   */\n    tag_103:\n        /* \"#utility.yul\":3512:3513   */\n      0x00\n        /* \"#utility.yul\":3537:3601   */\n      tag_105\n        /* \"#utility.yul\":3593:3600   */\n      dup5\n        /* \"#utility.yul\":3584:3590   */\n      dup3\n        /* \"#utility.yul\":3573:3582   */\n      dup6\n        /* \"#utility.yul\":3569:3591   */\n      add\n        /* \"#utility.yul\":3537:3601   */\n      tag_61\n      jump\t// in\n    tag_105:\n        /* \"#utility.yul\":3527:3601   */\n      swap2\n      pop\n        /* \"#utility.yul\":3483:3611   */\n      pop\n        /* \"#utility.yul\":3267:3618   */\n      swap3\n      swap2\n      pop\n      pop\n      jump\t// out\n    stop\n\n    sub_0: assembly {\n            /* \"simplestorage.sol\":58:665  contract SimpleStorage {... */\n          mstore(0x40, 0x80)\n          callvalue\n          dup1\n          iszero\n          tag_1\n          jumpi\n          0x00\n          dup1\n          revert\n        tag_1:\n          pop\n          dataSize(sub_0)\n          dup1\n          dataOffset(sub_0)\n          0x00\n          codecopy\n          0x00\n          return\n        stop\n\n        sub_0: assembly {\n                /* \"simplestorage.sol\":58:665  contract SimpleStorage {... */\n              mstore(0x40, 0x80)\n              callvalue\n              dup1\n              iszero\n              tag_1\n              jumpi\n              0x00\n              dup1\n              revert\n            tag_1:\n              pop\n              jumpi(tag_2, lt(calldatasize, 0x04))\n              shr(0xe0, calldataload(0x00))\n              dup1\n              0x186c39d0\n              eq\n              tag_3\n              jumpi\n              dup1\n              0x2e64cec1\n              eq\n              tag_4\n              jumpi\n              dup1\n              0x6057361d\n              eq\n              tag_5\n              jumpi\n              dup1\n              0x6f760f41\n              eq\n              tag_6\n              jumpi\n              dup1\n              0xf51d18a1\n              eq\n              tag_7\n              jumpi\n            tag_2:\n              0x00\n              dup1\n              revert\n                /* \"simplestorage.sol\":272:300  Person[] public listOfpeople */\n            tag_3:\n              tag_8\n              0x04\n              dup1\n              calldatasize\n              sub\n              dup2\n              add\n              swap1\n              tag_9\n              swap2\n              swap1\n              tag_10\n              jump\t// in\n            tag_9:\n              tag_11\n              jump\t// in\n            tag_8:\n              mload(0x40)\n              tag_12\n              swap3\n              swap2\n              swap1\n              tag_13\n              jump\t// in\n            tag_12:\n              mload(0x40)\n              dup1\n              swap2\n              sub\n              swap1\n              return\n                /* \"simplestorage.sol\":395:480  function retrieve() public view returns(uint256){... */\n            tag_4:\n              tag_14\n              tag_15\n              jump\t// in\n            tag_14:\n              mload(0x40)\n              tag_16\n              swap2\n              swap1\n              tag_17\n              jump\t// in\n            tag_16:\n              mload(0x40)\n              dup1\n              swap2\n              sub\n              swap1\n              return\n                /* \"simplestorage.sol\":309:387  function store (uint256 favnum) public {... */\n            tag_5:\n              tag_18\n              0x04\n              dup1\n              calldatasize\n              sub\n              dup2\n              add\n              swap1\n              tag_19\n              swap2\n              swap1\n              tag_10\n              jump\t// in\n            tag_19:\n              tag_20\n              jump\t// in\n            tag_18:\n              stop\n                /* \"simplestorage.sol\":488:662  function addPerson(string memory _name, uint256 _favnumber) public {... */\n            tag_6:\n              tag_21\n              0x04\n              dup1\n              calldatasize\n              sub\n              dup2\n              add\n              swap1\n              tag_22\n              swap2\n              swap1\n              tag_23\n              jump\t// in\n            tag_22:\n              tag_24\n              jump\t// in\n            tag_21:\n              stop\n                /* \"simplestorage.sol\":198:263  mapping (string name => uint256 favorite_num) public nameToFavnum */\n            tag_7:\n              tag_25\n              0x04\n              dup1\n              calldatasize\n              sub\n              dup2\n              add\n              swap1\n              tag_26\n              swap2\n              swap1\n              tag_27\n              jump\t// in\n            tag_26:\n              tag_28\n              jump\t// in\n            tag_25:\n              mload(0x40)\n              tag_29\n              swap2\n              swap1\n              tag_17\n              jump\t// in\n            tag_29:\n              mload(0x40)\n              dup1\n              swap2\n              sub\n              swap1\n              return\n                /* \"simplestorage.sol\":272:300  Person[] public listOfpeople */\n            tag_11:\n              0x02\n              dup2\n              dup2\n              sload\n              dup2\n              lt\n              tag_30\n              jumpi\n              0x00\n              dup1\n              revert\n            tag_30:\n              swap1\n              0x00\n              mstore\n              keccak256(0x00, 0x20)\n              swap1\n              0x02\n              mul\n              add\n              0x00\n              swap2\n              pop\n              swap1\n              pop\n              dup1\n              0x00\n              add\n              sload\n              swap1\n              dup1\n              0x01\n              add\n              dup1\n              sload\n              tag_32\n              swap1\n              tag_33\n              jump\t// in\n            tag_32:\n              dup1\n              0x1f\n              add\n              0x20\n              dup1\n              swap2\n              div\n              mul\n              0x20\n              add\n              mload(0x40)\n              swap1\n              dup2\n              add\n              0x40\n              mstore\n              dup1\n              swap3\n              swap2\n              swap1\n              dup2\n              dup2\n              mstore\n              0x20\n              add\n              dup3\n              dup1\n              sload\n              tag_34\n              swap1\n              tag_33\n              jump\t// in\n            tag_34:\n              dup1\n              iszero\n              tag_35\n              jumpi\n              dup1\n              0x1f\n              lt\n              tag_36\n              jumpi\n              0x0100\n              dup1\n              dup4\n              sload\n              div\n              mul\n              dup4\n              mstore\n              swap2\n              0x20\n              add\n              swap2\n              jump(tag_35)\n            tag_36:\n              dup3\n              add\n              swap2\n              swap1\n              0x00\n              mstore\n              keccak256(0x00, 0x20)\n              swap1\n            tag_37:\n              dup2\n              sload\n              dup2\n              mstore\n              swap1\n              0x01\n              add\n              swap1\n              0x20\n              add\n              dup1\n              dup4\n              gt\n              tag_37\n              jumpi\n              dup3\n              swap1\n              sub\n              0x1f\n              and\n              dup3\n              add\n              swap2\n            tag_35:\n              pop\n              pop\n              pop\n              pop\n              pop\n              swap1\n              pop\n              dup3\n              jump\t// out\n                /* \"simplestorage.sol\":395:480  function retrieve() public view returns(uint256){... */\n            tag_15:\n                /* \"simplestorage.sol\":435:442  uint256 */\n              0x00\n                /* \"simplestorage.sol\":461:472  myFavortite */\n              dup1\n              sload\n                /* \"simplestorage.sol\":454:472  return myFavortite */\n              swap1\n              pop\n                /* \"simplestorage.sol\":395:480  function retrieve() public view returns(uint256){... */\n              swap1\n              jump\t// out\n                /* \"simplestorage.sol\":309:387  function store (uint256 favnum) public {... */\n            tag_20:\n                /* \"simplestorage.sol\":373:379  favnum */\n              dup1\n                /* \"simplestorage.sol\":359:370  myFavortite */\n              0x00\n                /* \"simplestorage.sol\":359:379  myFavortite = favnum */\n              dup2\n              swap1\n              sstore\n              pop\n                /* \"simplestorage.sol\":309:387  function store (uint256 favnum) public {... */\n              pop\n              jump\t// out\n                /* \"simplestorage.sol\":488:662  function addPerson(string memory _name, uint256 _favnumber) public {... */\n            tag_24:\n                /* \"simplestorage.sol\":566:578  listOfpeople */\n              0x02\n                /* \"simplestorage.sol\":584:609  Person(_favnumber, _name) */\n              mload(0x40)\n              dup1\n              0x40\n              add\n              0x40\n              mstore\n              dup1\n                /* \"simplestorage.sol\":591:601  _favnumber */\n              dup4\n                /* \"simplestorage.sol\":584:609  Person(_favnumber, _name) */\n              dup2\n              mstore\n              0x20\n              add\n                /* \"simplestorage.sol\":603:608  _name */\n              dup5\n                /* \"simplestorage.sol\":584:609  Person(_favnumber, _name) */\n              dup2\n              mstore\n              pop\n                /* \"simplestorage.sol\":566:610  listOfpeople.push(Person(_favnumber, _name)) */\n              swap1\n              dup1\n              0x01\n              dup2\n              sload\n              add\n              dup1\n              dup3\n              sstore\n              dup1\n              swap2\n              pop\n              pop\n              0x01\n              swap1\n              sub\n              swap1\n              0x00\n              mstore\n              keccak256(0x00, 0x20)\n              swap1\n              0x02\n              mul\n              add\n              0x00\n              swap1\n              swap2\n              swap1\n              swap2\n              swap1\n              swap2\n              pop\n              0x00\n              dup3\n              add\n              mload\n              dup2\n              0x00\n              add\n              sstore\n              0x20\n              dup3\n              add\n              mload\n              dup2\n              0x01\n              add\n              swap1\n              dup2\n              tag_42\n              swap2\n              swap1\n              tag_43\n              jump\t// in\n            tag_42:\n              pop\n              pop\n              pop\n                /* \"simplestorage.sol\":643:653  _favnumber */\n              dup1\n                /* \"simplestorage.sol\":621:633  nameToFavnum */\n              0x01\n                /* \"simplestorage.sol\":634:639  _name */\n              dup4\n                /* \"simplestorage.sol\":621:640  nameToFavnum[_name] */\n              mload(0x40)\n              tag_44\n              swap2\n              swap1\n              tag_45\n              jump\t// in\n            tag_44:\n              swap1\n              dup2\n              mstore\n              0x20\n              add\n              mload(0x40)\n              dup1\n              swap2\n              sub\n              swap1\n              keccak256\n                /* \"simplestorage.sol\":621:653  nameToFavnum[_name] = _favnumber */\n              dup2\n              swap1\n              sstore\n              pop\n                /* \"simplestorage.sol\":488:662  function addPerson(string memory _name, uint256 _favnumber) public {... */\n              pop\n              pop\n              jump\t// out\n                /* \"simplestorage.sol\":198:263  mapping (string name => uint256 favorite_num) public nameToFavnum */\n            tag_28:\n              0x01\n              dup2\n              dup1\n              mload\n              0x20\n              dup2\n              add\n              dup3\n              add\n              dup1\n              mload\n              dup5\n              dup3\n              mstore\n              0x20\n              dup4\n              add\n              0x20\n              dup6\n              add\n              keccak256\n              dup2\n              dup4\n              mstore\n              dup1\n              swap6\n              pop\n              pop\n              pop\n              pop\n              pop\n              pop\n              0x00\n              swap2\n              pop\n              swap1\n              pop\n              sload\n              dup2\n              jump\t// out\n                /* \"#utility.yul\":7:82   */\n            tag_46:\n                /* \"#utility.yul\":40:46   */\n              0x00\n                /* \"#utility.yul\":73:75   */\n              0x40\n                /* \"#utility.yul\":67:76   */\n              mload\n                /* \"#utility.yul\":57:76   */\n              swap1\n              pop\n                /* \"#utility.yul\":7:82   */\n              swap1\n              jump\t// out\n                /* \"#utility.yul\":88:205   */\n            tag_47:\n                /* \"#utility.yul\":197:198   */\n              0x00\n                /* \"#utility.yul\":194:195   */\n              dup1\n                /* \"#utility.yul\":187:199   */\n              revert\n                /* \"#utility.yul\":211:328   */\n            tag_48:\n                /* \"#utility.yul\":320:321   */\n              0x00\n                /* \"#utility.yul\":317:318   */\n              dup1\n                /* \"#utility.yul\":310:322   */\n              revert\n                /* \"#utility.yul\":334:411   */\n            tag_49:\n                /* \"#utility.yul\":371:378   */\n              0x00\n                /* \"#utility.yul\":400:405   */\n              dup2\n                /* \"#utility.yul\":389:405   */\n              swap1\n              pop\n                /* \"#utility.yul\":334:411   */\n              swap2\n              swap1\n              pop\n              jump\t// out\n                /* \"#utility.yul\":417:539   */\n            tag_50:\n                /* \"#utility.yul\":490:514   */\n              tag_91\n                /* \"#utility.yul\":508:513   */\n              dup2\n                /* \"#utility.yul\":490:514   */\n              tag_49\n              jump\t// in\n            tag_91:\n                /* \"#utility.yul\":483:488   */\n              dup2\n                /* \"#utility.yul\":480:515   */\n              eq\n                /* \"#utility.yul\":470:533   */\n              tag_92\n              jumpi\n                /* \"#utility.yul\":529:530   */\n              0x00\n                /* \"#utility.yul\":526:527   */\n              dup1\n                /* \"#utility.yul\":519:531   */\n              revert\n                /* \"#utility.yul\":470:533   */\n            tag_92:\n                /* \"#utility.yul\":417:539   */\n              pop\n              jump\t// out\n                /* \"#utility.yul\":545:684   */\n            tag_51:\n                /* \"#utility.yul\":591:596   */\n              0x00\n                /* \"#utility.yul\":629:635   */\n              dup2\n                /* \"#utility.yul\":616:636   */\n              calldataload\n                /* \"#utility.yul\":607:636   */\n              swap1\n              pop\n                /* \"#utility.yul\":645:678   */\n              tag_94\n                /* \"#utility.yul\":672:677   */\n              dup2\n                /* \"#utility.yul\":645:678   */\n              tag_50\n              jump\t// in\n            tag_94:\n                /* \"#utility.yul\":545:684   */\n              swap3\n              swap2\n              pop\n              pop\n              jump\t// out\n                /* \"#utility.yul\":690:1019   */\n            tag_10:\n                /* \"#utility.yul\":749:755   */\n              0x00\n                /* \"#utility.yul\":798:800   */\n              0x20\n                /* \"#utility.yul\":786:795   */\n              dup3\n                /* \"#utility.yul\":777:784   */\n              dup5\n                /* \"#utility.yul\":773:796   */\n              sub\n                /* \"#utility.yul\":769:801   */\n              slt\n                /* \"#utility.yul\":766:885   */\n              iszero\n              tag_96\n              jumpi\n                /* \"#utility.yul\":804:883   */\n              tag_97\n              tag_47\n              jump\t// in\n            tag_97:\n                /* \"#utility.yul\":766:885   */\n            tag_96:\n                /* \"#utility.yul\":924:925   */\n              0x00\n                /* \"#utility.yul\":949:1002   */\n              tag_98\n                /* \"#utility.yul\":994:1001   */\n              dup5\n                /* \"#utility.yul\":985:991   */\n              dup3\n                /* \"#utility.yul\":974:983   */\n              dup6\n                /* \"#utility.yul\":970:992   */\n              add\n                /* \"#utility.yul\":949:1002   */\n              tag_51\n              jump\t// in\n            tag_98:\n                /* \"#utility.yul\":939:1002   */\n              swap2\n              pop\n                /* \"#utility.yul\":895:1012   */\n              pop\n                /* \"#utility.yul\":690:1019   */\n              swap3\n              swap2\n              pop\n              pop\n              jump\t// out\n                /* \"#utility.yul\":1025:1143   */\n            tag_52:\n                /* \"#utility.yul\":1112:1136   */\n              tag_100\n                /* \"#utility.yul\":1130:1135   */\n              dup2\n                /* \"#utility.yul\":1112:1136   */\n              tag_49\n              jump\t// in\n            tag_100:\n                /* \"#utility.yul\":1107:1110   */\n              dup3\n                /* \"#utility.yul\":1100:1137   */\n              mstore\n                /* \"#utility.yul\":1025:1143   */\n              pop\n              pop\n              jump\t// out\n                /* \"#utility.yul\":1149:1248   */\n            tag_53:\n                /* \"#utility.yul\":1201:1207   */\n              0x00\n                /* \"#utility.yul\":1235:1240   */\n              dup2\n                /* \"#utility.yul\":1229:1241   */\n              mload\n                /* \"#utility.yul\":1219:1241   */\n              swap1\n              pop\n                /* \"#utility.yul\":1149:1248   */\n              swap2\n              swap1\n              pop\n              jump\t// out\n                /* \"#utility.yul\":1254:1423   */\n            tag_54:\n                /* \"#utility.yul\":1338:1349   */\n              0x00\n                /* \"#utility.yul\":1372:1378   */\n              dup3\n                /* \"#utility.yul\":1367:1370   */\n              dup3\n                /* \"#utility.yul\":1360:1379   */\n              mstore\n                /* \"#utility.yul\":1412:1416   */\n              0x20\n                /* \"#utility.yul\":1407:1410   */\n              dup3\n                /* \"#utility.yul\":1403:1417   */\n              add\n                /* \"#utility.yul\":1388:1417   */\n              swap1\n              pop\n                /* \"#utility.yul\":1254:1423   */\n              swap3\n              swap2\n              pop\n              pop\n              jump\t// out\n                /* \"#utility.yul\":1429:1675   */\n            tag_55:\n                /* \"#utility.yul\":1510:1511   */\n              0x00\n                /* \"#utility.yul\":1520:1633   */\n            tag_104:\n                /* \"#utility.yul\":1534:1540   */\n              dup4\n                /* \"#utility.yul\":1531:1532   */\n              dup2\n                /* \"#utility.yul\":1528:1541   */\n              lt\n                /* \"#utility.yul\":1520:1633   */\n              iszero\n              tag_106\n              jumpi\n                /* \"#utility.yul\":1619:1620   */\n              dup1\n                /* \"#utility.yul\":1614:1617   */\n              dup3\n                /* \"#utility.yul\":1610:1621   */\n              add\n                /* \"#utility.yul\":1604:1622   */\n              mload\n                /* \"#utility.yul\":1600:1601   */\n              dup2\n                /* \"#utility.yul\":1595:1598   */\n              dup5\n                /* \"#utility.yul\":1591:1602   */\n              add\n                /* \"#utility.yul\":1584:1623   */\n              mstore\n                /* \"#utility.yul\":1556:1558   */\n              0x20\n                /* \"#utility.yul\":1553:1554   */\n              dup2\n                /* \"#utility.yul\":1549:1559   */\n              add\n                /* \"#utility.yul\":1544:1559   */\n              swap1\n              pop\n                /* \"#utility.yul\":1520:1633   */\n              jump(tag_104)\n            tag_106:\n                /* \"#utility.yul\":1667:1668   */\n              0x00\n                /* \"#utility.yul\":1658:1664   */\n              dup5\n                /* \"#utility.yul\":1653:1656   */\n              dup5\n                /* \"#utility.yul\":1649:1665   */\n              add\n                /* \"#utility.yul\":1642:1669   */\n              mstore\n                /* \"#utility.yul\":1491:1675   */\n              pop\n                /* \"#utility.yul\":1429:1675   */\n              pop\n              pop\n              pop\n              jump\t// out\n                /* \"#utility.yul\":1681:1783   */\n            tag_56:\n                /* \"#utility.yul\":1722:1728   */\n              0x00\n                /* \"#utility.yul\":1773:1775   */\n              0x1f\n                /* \"#utility.yul\":1769:1776   */\n              not\n                /* \"#utility.yul\":1764:1766   */\n              0x1f\n                /* \"#utility.yul\":1757:1762   */\n              dup4\n                /* \"#utility.yul\":1753:1767   */\n              add\n                /* \"#utility.yul\":1749:1777   */\n              and\n                /* \"#utility.yul\":1739:1777   */\n              swap1\n              pop\n                /* \"#utility.yul\":1681:1783   */\n              swap2\n              swap1\n              pop\n              jump\t// out\n                /* \"#utility.yul\":1789:2166   */\n            tag_57:\n                /* \"#utility.yul\":1877:1880   */\n              0x00\n                /* \"#utility.yul\":1905:1944   */\n              tag_109\n                /* \"#utility.yul\":1938:1943   */\n              dup3\n                /* \"#utility.yul\":1905:1944   */\n              tag_53\n              jump\t// in\n            tag_109:\n                /* \"#utility.yul\":1960:2031   */\n              tag_110\n                /* \"#utility.yul\":2024:2030   */\n              dup2\n                /* \"#utility.yul\":2019:2022   */\n              dup6\n                /* \"#utility.yul\":1960:2031   */\n              tag_54\n              jump\t// in\n            tag_110:\n                /* \"#utility.yul\":1953:2031   */\n              swap4\n              pop\n                /* \"#utility.yul\":2040:2105   */\n              tag_111\n                /* \"#utility.yul\":2098:2104   */\n              dup2\n                /* \"#utility.yul\":2093:2096   */\n              dup6\n                /* \"#utility.yul\":2086:2090   */\n              0x20\n                /* \"#utility.yul\":2079:2084   */\n              dup7\n                /* \"#utility.yul\":2075:2091   */\n              add\n                /* \"#utility.yul\":2040:2105   */\n              tag_55\n              jump\t// in\n            tag_111:\n                /* \"#utility.yul\":2130:2159   */\n              tag_112\n                /* \"#utility.yul\":2152:2158   */\n              dup2\n                /* \"#utility.yul\":2130:2159   */\n              tag_56\n              jump\t// in\n            tag_112:\n                /* \"#utility.yul\":2125:2128   */\n              dup5\n                /* \"#utility.yul\":2121:2160   */\n              add\n                /* \"#utility.yul\":2114:2160   */\n              swap2\n              pop\n                /* \"#utility.yul\":1881:2166   */\n              pop\n                /* \"#utility.yul\":1789:2166   */\n              swap3\n              swap2\n              pop\n              pop\n              jump\t// out\n                /* \"#utility.yul\":2172:2595   */\n            tag_13:\n                /* \"#utility.yul\":2313:2317   */\n              0x00\n                /* \"#utility.yul\":2351:2353   */\n              0x40\n                /* \"#utility.yul\":2340:2349   */\n              dup3\n                /* \"#utility.yul\":2336:2354   */\n              add\n                /* \"#utility.yul\":2328:2354   */\n              swap1\n              pop\n                /* \"#utility.yul\":2364:2435   */\n              tag_114\n                /* \"#utility.yul\":2432:2433   */\n              0x00\n                /* \"#utility.yul\":2421:2430   */\n              dup4\n                /* \"#utility.yul\":2417:2434   */\n              add\n                /* \"#utility.yul\":2408:2414   */\n              dup6\n                /* \"#utility.yul\":2364:2435   */\n              tag_52\n              jump\t// in\n            tag_114:\n                /* \"#utility.yul\":2482:2491   */\n              dup2\n                /* \"#utility.yul\":2476:2480   */\n              dup2\n                /* \"#utility.yul\":2472:2492   */\n              sub\n                /* \"#utility.yul\":2467:2469   */\n              0x20\n                /* \"#utility.yul\":2456:2465   */\n              dup4\n                /* \"#utility.yul\":2452:2470   */\n              add\n                /* \"#utility.yul\":2445:2493   */\n              mstore\n                /* \"#utility.yul\":2510:2588   */\n              tag_115\n                /* \"#utility.yul\":2583:2587   */\n              dup2\n                /* \"#utility.yul\":2574:2580   */\n              dup5\n                /* \"#utility.yul\":2510:2588   */\n              tag_57\n              jump\t// in\n            tag_115:\n                /* \"#utility.yul\":2502:2588   */\n              swap1\n              pop\n                /* \"#utility.yul\":2172:2595   */\n              swap4\n              swap3\n              pop\n              pop\n              pop\n              jump\t// out\n                /* \"#utility.yul\":2601:2823   */\n            tag_17:\n                /* \"#utility.yul\":2694:2698   */\n              0x00\n                /* \"#utility.yul\":2732:2734   */\n              0x20\n                /* \"#utility.yul\":2721:2730   */\n              dup3\n                /* \"#utility.yul\":2717:2735   */\n              add\n                /* \"#utility.yul\":2709:2735   */\n              swap1\n              pop\n                /* \"#utility.yul\":2745:2816   */\n              tag_117\n                /* \"#utility.yul\":2813:2814   */\n              0x00\n                /* \"#utility.yul\":2802:2811   */\n              dup4\n                /* \"#utility.yul\":2798:2815   */\n              add\n                /* \"#utility.yul\":2789:2795   */\n              dup5\n                /* \"#utility.yul\":2745:2816   */\n              tag_52\n              jump\t// in\n            tag_117:\n                /* \"#utility.yul\":2601:2823   */\n              swap3\n              swap2\n              pop\n              pop\n              jump\t// out\n                /* \"#utility.yul\":2829:2946   */\n            tag_58:\n                /* \"#utility.yul\":2938:2939   */\n              0x00\n                /* \"#utility.yul\":2935:2936   */\n              dup1\n                /* \"#utility.yul\":2928:2940   */\n              revert\n                /* \"#utility.yul\":2952:3069   */\n            tag_59:\n                /* \"#utility.yul\":3061:3062   */\n              0x00\n                /* \"#utility.yul\":3058:3059   */\n              dup1\n                /* \"#utility.yul\":3051:3063   */\n              revert\n                /* \"#utility.yul\":3075:3255   */\n            tag_60:\n                /* \"#utility.yul\":3123:3200   */\n              0x4e487b7100000000000000000000000000000000000000000000000000000000\n                /* \"#utility.yul\":3120:3121   */\n              0x00\n                /* \"#utility.yul\":3113:3201   */\n              mstore\n                /* \"#utility.yul\":3220:3224   */\n              0x41\n                /* \"#utility.yul\":3217:3218   */\n              0x04\n                /* \"#utility.yul\":3210:3225   */\n              mstore\n                /* \"#utility.yul\":3244:3248   */\n              0x24\n                /* \"#utility.yul\":3241:3242   */\n              0x00\n                /* \"#utility.yul\":3234:3249   */\n              revert\n                /* \"#utility.yul\":3261:3542   */\n            tag_61:\n                /* \"#utility.yul\":3344:3371   */\n              tag_122\n                /* \"#utility.yul\":3366:3370   */\n              dup3\n                /* \"#utility.yul\":3344:3371   */\n              tag_56\n              jump\t// in\n            tag_122:\n                /* \"#utility.yul\":3336:3342   */\n              dup2\n                /* \"#utility.yul\":3332:3372   */\n              add\n                /* \"#utility.yul\":3474:3480   */\n              dup2\n                /* \"#utility.yul\":3462:3472   */\n              dup2\n                /* \"#utility.yul\":3459:3481   */\n              lt\n                /* \"#utility.yul\":3438:3456   */\n              0xffffffffffffffff\n                /* \"#utility.yul\":3426:3436   */\n              dup3\n                /* \"#utility.yul\":3423:3457   */\n              gt\n                /* \"#utility.yul\":3420:3482   */\n              or\n                /* \"#utility.yul\":3417:3505   */\n              iszero\n              tag_123\n              jumpi\n                /* \"#utility.yul\":3485:3503   */\n              tag_124\n              tag_60\n              jump\t// in\n            tag_124:\n                /* \"#utility.yul\":3417:3505   */\n            tag_123:\n                /* \"#utility.yul\":3525:3535   */\n              dup1\n                /* \"#utility.yul\":3521:3523   */\n              0x40\n                /* \"#utility.yul\":3514:3536   */\n              mstore\n                /* \"#utility.yul\":3304:3542   */\n              pop\n                /* \"#utility.yul\":3261:3542   */\n              pop\n              pop\n              jump\t// out\n                /* \"#utility.yul\":3548:3677   */\n            tag_62:\n                /* \"#utility.yul\":3582:3588   */\n              0x00\n                /* \"#utility.yul\":3609:3629   */\n              tag_126\n              tag_46\n              jump\t// in\n            tag_126:\n                /* \"#utility.yul\":3599:3629   */\n              swap1\n              pop\n                /* \"#utility.yul\":3638:3671   */\n              tag_127\n                /* \"#utility.yul\":3666:3670   */\n              dup3\n                /* \"#utility.yul\":3658:3664   */\n              dup3\n                /* \"#utility.yul\":3638:3671   */\n              tag_61\n              jump\t// in\n            tag_127:\n                /* \"#utility.yul\":3548:3677   */\n              swap2\n              swap1\n              pop\n              jump\t// out\n                /* \"#utility.yul\":3683:3991   */\n            tag_63:\n                /* \"#utility.yul\":3745:3749   */\n              0x00\n                /* \"#utility.yul\":3835:3853   */\n              0xffffffffffffffff\n                /* \"#utility.yul\":3827:3833   */\n              dup3\n                /* \"#utility.yul\":3824:3854   */\n              gt\n                /* \"#utility.yul\":3821:3877   */\n              iszero\n              tag_129\n              jumpi\n                /* \"#utility.yul\":3857:3875   */\n              tag_130\n              tag_60\n              jump\t// in\n            tag_130:\n                /* \"#utility.yul\":3821:3877   */\n            tag_129:\n                /* \"#utility.yul\":3895:3924   */\n              tag_131\n                /* \"#utility.yul\":3917:3923   */\n              dup3\n                /* \"#utility.yul\":3895:3924   */\n              tag_56\n              jump\t// in\n            tag_131:\n                /* \"#utility.yul\":3887:3924   */\n              swap1\n              pop\n                /* \"#utility.yul\":3979:3983   */\n              0x20\n                /* \"#utility.yul\":3973:3977   */\n              dup2\n                /* \"#utility.yul\":3969:3984   */\n              add\n                /* \"#utility.yul\":3961:3984   */\n              swap1\n              pop\n                /* \"#utility.yul\":3683:3991   */\n              swap2\n              swap1\n              pop\n              jump\t// out\n                /* \"#utility.yul\":3997:4143   */\n            tag_64:\n                /* \"#utility.yul\":4094:4100   */\n              dup3\n                /* \"#utility.yul\":4089:4092   */\n              dup2\n                /* \"#utility.yul\":4084:4087   */\n              dup4\n                /* \"#utility.yul\":4071:4101   */\n              calldatacopy\n                /* \"#utility.yul\":4135:4136   */\n              0x00\n                /* \"#utility.yul\":4126:4132   */\n              dup4\n                /* \"#utility.yul\":4121:4124   */\n              dup4\n                /* \"#utility.yul\":4117:4133   */\n              add\n                /* \"#utility.yul\":4110:4137   */\n              mstore\n                /* \"#utility.yul\":3997:4143   */\n              pop\n              pop\n              pop\n              jump\t// out\n                /* \"#utility.yul\":4149:4574   */\n            tag_65:\n                /* \"#utility.yul\":4227:4232   */\n              0x00\n                /* \"#utility.yul\":4252:4318   */\n              tag_134\n                /* \"#utility.yul\":4268:4317   */\n              tag_135\n                /* \"#utility.yul\":4310:4316   */\n              dup5\n                /* \"#utility.yul\":4268:4317   */\n              tag_63\n              jump\t// in\n            tag_135:\n                /* \"#utility.yul\":4252:4318   */\n              tag_62\n              jump\t// in\n            tag_134:\n                /* \"#utility.yul\":4243:4318   */\n              swap1\n              pop\n                /* \"#utility.yul\":4341:4347   */\n              dup3\n                /* \"#utility.yul\":4334:4339   */\n              dup2\n                /* \"#utility.yul\":4327:4348   */\n              mstore\n                /* \"#utility.yul\":4379:4383   */\n              0x20\n                /* \"#utility.yul\":4372:4377   */\n              dup2\n                /* \"#utility.yul\":4368:4384   */\n              add\n                /* \"#utility.yul\":4417:4420   */\n              dup5\n                /* \"#utility.yul\":4408:4414   */\n              dup5\n                /* \"#utility.yul\":4403:4406   */\n              dup5\n                /* \"#utility.yul\":4399:4415   */\n              add\n                /* \"#utility.yul\":4396:4421   */\n              gt\n                /* \"#utility.yul\":4393:4505   */\n              iszero\n              tag_136\n              jumpi\n                /* \"#utility.yul\":4424:4503   */\n              tag_137\n              tag_59\n              jump\t// in\n            tag_137:\n                /* \"#utility.yul\":4393:4505   */\n            tag_136:\n                /* \"#utility.yul\":4514:4568   */\n              tag_138\n                /* \"#utility.yul\":4561:4567   */\n              dup5\n                /* \"#utility.yul\":4556:4559   */\n              dup3\n                /* \"#utility.yul\":4551:4554   */\n              dup6\n                /* \"#utility.yul\":4514:4568   */\n              tag_64\n              jump\t// in\n            tag_138:\n                /* \"#utility.yul\":4233:4574   */\n              pop\n                /* \"#utility.yul\":4149:4574   */\n              swap4\n              swap3\n              pop\n              pop\n              pop\n              jump\t// out\n                /* \"#utility.yul\":4594:4934   */\n            tag_66:\n                /* \"#utility.yul\":4650:4655   */\n              0x00\n                /* \"#utility.yul\":4699:4702   */\n              dup3\n                /* \"#utility.yul\":4692:4696   */\n              0x1f\n                /* \"#utility.yul\":4684:4690   */\n              dup4\n                /* \"#utility.yul\":4680:4697   */\n              add\n                /* \"#utility.yul\":4676:4703   */\n              slt\n                /* \"#utility.yul\":4666:4788   */\n              tag_140\n              jumpi\n                /* \"#utility.yul\":4707:4786   */\n              tag_141\n              tag_58\n              jump\t// in\n            tag_141:\n                /* \"#utility.yul\":4666:4788   */\n            tag_140:\n                /* \"#utility.yul\":4824:4830   */\n              dup2\n                /* \"#utility.yul\":4811:4831   */\n              calldataload\n                /* \"#utility.yul\":4849:4928   */\n              tag_142\n                /* \"#utility.yul\":4924:4927   */\n              dup5\n                /* \"#utility.yul\":4916:4922   */\n              dup3\n                /* \"#utility.yul\":4909:4913   */\n              0x20\n                /* \"#utility.yul\":4901:4907   */\n              dup7\n                /* \"#utility.yul\":4897:4914   */\n              add\n                /* \"#utility.yul\":4849:4928   */\n              tag_65\n              jump\t// in\n            tag_142:\n                /* \"#utility.yul\":4840:4928   */\n              swap2\n              pop\n                /* \"#utility.yul\":4656:4934   */\n              pop\n                /* \"#utility.yul\":4594:4934   */\n              swap3\n              swap2\n              pop\n              pop\n              jump\t// out\n                /* \"#utility.yul\":4940:5594   */\n            tag_23:\n                /* \"#utility.yul\":5018:5024   */\n              0x00\n                /* \"#utility.yul\":5026:5032   */\n              dup1\n                /* \"#utility.yul\":5075:5077   */\n              0x40\n                /* \"#utility.yul\":5063:5072   */\n              dup4\n                /* \"#utility.yul\":5054:5061   */\n              dup6\n                /* \"#utility.yul\":5050:5073   */\n              sub\n                /* \"#utility.yul\":5046:5078   */\n              slt\n                /* \"#utility.yul\":5043:5162   */\n              iszero\n              tag_144\n              jumpi\n                /* \"#utility.yul\":5081:5160   */\n              tag_145\n              tag_47\n              jump\t// in\n            tag_145:\n                /* \"#utility.yul\":5043:5162   */\n            tag_144:\n                /* \"#utility.yul\":5229:5230   */\n              0x00\n                /* \"#utility.yul\":5218:5227   */\n              dup4\n                /* \"#utility.yul\":5214:5231   */\n              add\n                /* \"#utility.yul\":5201:5232   */\n              calldataload\n                /* \"#utility.yul\":5259:5277   */\n              0xffffffffffffffff\n                /* \"#utility.yul\":5251:5257   */\n              dup2\n                /* \"#utility.yul\":5248:5278   */\n              gt\n                /* \"#utility.yul\":5245:5362   */\n              iszero\n              tag_146\n              jumpi\n                /* \"#utility.yul\":5281:5360   */\n              tag_147\n              tag_48\n              jump\t// in\n            tag_147:\n                /* \"#utility.yul\":5245:5362   */\n            tag_146:\n                /* \"#utility.yul\":5386:5449   */\n              tag_148\n                /* \"#utility.yul\":5441:5448   */\n              dup6\n                /* \"#utility.yul\":5432:5438   */\n              dup3\n                /* \"#utility.yul\":5421:5430   */\n              dup7\n                /* \"#utility.yul\":5417:5439   */\n              add\n                /* \"#utility.yul\":5386:5449   */\n              tag_66\n              jump\t// in\n            tag_148:\n                /* \"#utility.yul\":5376:5449   */\n              swap3\n              pop\n                /* \"#utility.yul\":5172:5459   */\n              pop\n                /* \"#utility.yul\":5498:5500   */\n              0x20\n                /* \"#utility.yul\":5524:5577   */\n              tag_149\n                /* \"#utility.yul\":5569:5576   */\n              dup6\n                /* \"#utility.yul\":5560:5566   */\n              dup3\n                /* \"#utility.yul\":5549:5558   */\n              dup7\n                /* \"#utility.yul\":5545:5567   */\n              add\n                /* \"#utility.yul\":5524:5577   */\n              tag_51\n              jump\t// in\n            tag_149:\n                /* \"#utility.yul\":5514:5577   */\n              swap2\n              pop\n                /* \"#utility.yul\":5469:5587   */\n              pop\n                /* \"#utility.yul\":4940:5594   */\n              swap3\n              pop\n              swap3\n              swap1\n              pop\n              jump\t// out\n                /* \"#utility.yul\":5600:6109   */\n            tag_27:\n                /* \"#utility.yul\":5669:5675   */\n              0x00\n                /* \"#utility.yul\":5718:5720   */\n              0x20\n                /* \"#utility.yul\":5706:5715   */\n              dup3\n                /* \"#utility.yul\":5697:5704   */\n              dup5\n                /* \"#utility.yul\":5693:5716   */\n              sub\n                /* \"#utility.yul\":5689:5721   */\n              slt\n                /* \"#utility.yul\":5686:5805   */\n              iszero\n              tag_151\n              jumpi\n                /* \"#utility.yul\":5724:5803   */\n              tag_152\n              tag_47\n              jump\t// in\n            tag_152:\n                /* \"#utility.yul\":5686:5805   */\n            tag_151:\n                /* \"#utility.yul\":5872:5873   */\n              0x00\n                /* \"#utility.yul\":5861:5870   */\n              dup3\n                /* \"#utility.yul\":5857:5874   */\n              add\n                /* \"#utility.yul\":5844:5875   */\n              calldataload\n                /* \"#utility.yul\":5902:5920   */\n              0xffffffffffffffff\n                /* \"#utility.yul\":5894:5900   */\n              dup2\n                /* \"#utility.yul\":5891:5921   */\n              gt\n                /* \"#utility.yul\":5888:6005   */\n              iszero\n              tag_153\n              jumpi\n                /* \"#utility.yul\":5924:6003   */\n              tag_154\n              tag_48\n              jump\t// in\n            tag_154:\n                /* \"#utility.yul\":5888:6005   */\n            tag_153:\n                /* \"#utility.yul\":6029:6092   */\n              tag_155\n                /* \"#utility.yul\":6084:6091   */\n              dup5\n                /* \"#utility.yul\":6075:6081   */\n              dup3\n                /* \"#utility.yul\":6064:6073   */\n              dup6\n                /* \"#utility.yul\":6060:6082   */\n              add\n                /* \"#utility.yul\":6029:6092   */\n              tag_66\n              jump\t// in\n            tag_155:\n                /* \"#utility.yul\":6019:6092   */\n              swap2\n              pop\n                /* \"#utility.yul\":5815:6102   */\n              pop\n                /* \"#utility.yul\":5600:6109   */\n              swap3\n              swap2\n              pop\n              pop\n              jump\t// out\n                /* \"#utility.yul\":6115:6295   */\n            tag_67:\n                /* \"#utility.yul\":6163:6240   */\n              0x4e487b7100000000000000000000000000000000000000000000000000000000\n                /* \"#utility.yul\":6160:6161   */\n              0x00\n                /* \"#utility.yul\":6153:6241   */\n              mstore\n                /* \"#utility.yul\":6260:6264   */\n              0x22\n                /* \"#utility.yul\":6257:6258   */\n              0x04\n                /* \"#utility.yul\":6250:6265   */\n              mstore\n                /* \"#utility.yul\":6284:6288   */\n              0x24\n                /* \"#utility.yul\":6281:6282   */\n              0x00\n                /* \"#utility.yul\":6274:6289   */\n              revert\n                /* \"#utility.yul\":6301:6621   */\n            tag_33:\n                /* \"#utility.yul\":6345:6351   */\n              0x00\n                /* \"#utility.yul\":6382:6383   */\n              0x02\n                /* \"#utility.yul\":6376:6380   */\n              dup3\n                /* \"#utility.yul\":6372:6384   */\n              div\n                /* \"#utility.yul\":6362:6384   */\n              swap1\n              pop\n                /* \"#utility.yul\":6429:6430   */\n              0x01\n                /* \"#utility.yul\":6423:6427   */\n              dup3\n                /* \"#utility.yul\":6419:6431   */\n              and\n                /* \"#utility.yul\":6450:6468   */\n              dup1\n                /* \"#utility.yul\":6440:6521   */\n              tag_158\n              jumpi\n                /* \"#utility.yul\":6506:6510   */\n              0x7f\n                /* \"#utility.yul\":6498:6504   */\n              dup3\n                /* \"#utility.yul\":6494:6511   */\n              and\n                /* \"#utility.yul\":6484:6511   */\n              swap2\n              pop\n                /* \"#utility.yul\":6440:6521   */\n            tag_158:\n                /* \"#utility.yul\":6568:6570   */\n              0x20\n                /* \"#utility.yul\":6560:6566   */\n              dup3\n                /* \"#utility.yul\":6557:6571   */\n              lt\n                /* \"#utility.yul\":6537:6555   */\n              dup2\n                /* \"#utility.yul\":6534:6572   */\n              sub\n                /* \"#utility.yul\":6531:6615   */\n              tag_159\n              jumpi\n                /* \"#utility.yul\":6587:6605   */\n              tag_160\n              tag_67\n              jump\t// in\n            tag_160:\n                /* \"#utility.yul\":6531:6615   */\n            tag_159:\n                /* \"#utility.yul\":6352:6621   */\n              pop\n                /* \"#utility.yul\":6301:6621   */\n              swap2\n              swap1\n              pop\n              jump\t// out\n                /* \"#utility.yul\":6627:6768   */\n            tag_68:\n                /* \"#utility.yul\":6676:6680   */\n              0x00\n                /* \"#utility.yul\":6699:6702   */\n              dup2\n                /* \"#utility.yul\":6691:6702   */\n              swap1\n              pop\n                /* \"#utility.yul\":6722:6725   */\n              dup2\n                /* \"#utility.yul\":6719:6720   */\n              0x00\n                /* \"#utility.yul\":6712:6726   */\n              mstore\n                /* \"#utility.yul\":6756:6760   */\n              0x20\n                /* \"#utility.yul\":6753:6754   */\n              0x00\n                /* \"#utility.yul\":6743:6761   */\n              keccak256\n                /* \"#utility.yul\":6735:6761   */\n              swap1\n              pop\n                /* \"#utility.yul\":6627:6768   */\n              swap2\n              swap1\n              pop\n              jump\t// out\n                /* \"#utility.yul\":6774:6867   */\n            tag_69:\n                /* \"#utility.yul\":6811:6817   */\n              0x00\n                /* \"#utility.yul\":6858:6860   */\n              0x20\n                /* \"#utility.yul\":6853:6855   */\n              0x1f\n                /* \"#utility.yul\":6846:6851   */\n              dup4\n                /* \"#utility.yul\":6842:6856   */\n              add\n                /* \"#utility.yul\":6838:6861   */\n              div\n                /* \"#utility.yul\":6828:6861   */\n              swap1\n              pop\n                /* \"#utility.yul\":6774:6867   */\n              swap2\n              swap1\n              pop\n              jump\t// out\n                /* \"#utility.yul\":6873:6980   */\n            tag_70:\n                /* \"#utility.yul\":6917:6925   */\n              0x00\n                /* \"#utility.yul\":6967:6972   */\n              dup3\n                /* \"#utility.yul\":6961:6965   */\n              dup3\n                /* \"#utility.yul\":6957:6973   */\n              shl\n                /* \"#utility.yul\":6936:6973   */\n              swap1\n              pop\n                /* \"#utility.yul\":6873:6980   */\n              swap3\n              swap2\n              pop\n              pop\n              jump\t// out\n                /* \"#utility.yul\":6986:7379   */\n            tag_71:\n                /* \"#utility.yul\":7055:7061   */\n              0x00\n                /* \"#utility.yul\":7105:7106   */\n              0x08\n                /* \"#utility.yul\":7093:7103   */\n              dup4\n                /* \"#utility.yul\":7089:7107   */\n              mul\n                /* \"#utility.yul\":7128:7225   */\n              tag_165\n                /* \"#utility.yul\":7158:7224   */\n              0xffffffffffffffffffffffffffffffffffffffffffffffffffffffffffffffff\n                /* \"#utility.yul\":7147:7156   */\n              dup3\n                /* \"#utility.yul\":7128:7225   */\n              tag_70\n              jump\t// in\n            tag_165:\n                /* \"#utility.yul\":7246:7285   */\n              tag_166\n                /* \"#utility.yul\":7276:7284   */\n              dup7\n                /* \"#utility.yul\":7265:7274   */\n              dup4\n                /* \"#utility.yul\":7246:7285   */\n              tag_70\n              jump\t// in\n            tag_166:\n                /* \"#utility.yul\":7234:7285   */\n              swap6\n              pop\n                /* \"#utility.yul\":7318:7322   */\n              dup1\n                /* \"#utility.yul\":7314:7323   */\n              not\n                /* \"#utility.yul\":7307:7312   */\n              dup5\n                /* \"#utility.yul\":7303:7324   */\n              and\n                /* \"#utility.yul\":7294:7324   */\n              swap4\n              pop\n                /* \"#utility.yul\":7367:7371   */\n              dup1\n                /* \"#utility.yul\":7357:7365   */\n              dup7\n                /* \"#utility.yul\":7353:7372   */\n              and\n                /* \"#utility.yul\":7346:7351   */\n              dup5\n                /* \"#utility.yul\":7343:7373   */\n              or\n                /* \"#utility.yul\":7333:7373   */\n              swap3\n              pop\n                /* \"#utility.yul\":7062:7379   */\n              pop\n              pop\n                /* \"#utility.yul\":6986:7379   */\n              swap4\n              swap3\n              pop\n              pop\n              pop\n              jump\t// out\n                /* \"#utility.yul\":7385:7445   */\n            tag_72:\n                /* \"#utility.yul\":7413:7416   */\n              0x00\n                /* \"#utility.yul\":7434:7439   */\n              dup2\n                /* \"#utility.yul\":7427:7439   */\n              swap1\n              pop\n                /* \"#utility.yul\":7385:7445   */\n              swap2\n              swap1\n              pop\n              jump\t// out\n                /* \"#utility.yul\":7451:7593   */\n            tag_73:\n                /* \"#utility.yul\":7501:7510   */\n              0x00\n                /* \"#utility.yul\":7534:7587   */\n              tag_169\n                /* \"#utility.yul\":7552:7586   */\n              tag_170\n                /* \"#utility.yul\":7561:7585   */\n              tag_171\n                /* \"#utility.yul\":7579:7584   */\n              dup5\n                /* \"#utility.yul\":7561:7585   */\n              tag_49\n              jump\t// in\n            tag_171:\n                /* \"#utility.yul\":7552:7586   */\n              tag_72\n              jump\t// in\n            tag_170:\n                /* \"#utility.yul\":7534:7587   */\n              tag_49\n              jump\t// in\n            tag_169:\n                /* \"#utility.yul\":7521:7587   */\n              swap1\n              pop\n                /* \"#utility.yul\":7451:7593   */\n              swap2\n              swap1\n              pop\n              jump\t// out\n                /* \"#utility.yul\":7599:7674   */\n            tag_74:\n                /* \"#utility.yul\":7642:7645   */\n              0x00\n                /* \"#utility.yul\":7663:7668   */\n              dup2\n                /* \"#utility.yul\":7656:7668   */\n              swap1\n              pop\n                /* \"#utility.yul\":7599:7674   */\n              swap2\n              swap1\n              pop\n              jump\t// out\n                /* \"#utility.yul\":7680:7949   */\n            tag_75:\n                /* \"#utility.yul\":7790:7829   */\n              tag_174\n                /* \"#utility.yul\":7821:7828   */\n              dup4\n                /* \"#utility.yul\":7790:7829   */\n              tag_73\n              jump\t// in\n            tag_174:\n                /* \"#utility.yul\":7851:7942   */\n              tag_175\n                /* \"#utility.yul\":7900:7941   */\n              tag_176\n                /* \"#utility.yul\":7924:7940   */\n              dup3\n                /* \"#utility.yul\":7900:7941   */\n              tag_74\n              jump\t// in\n            tag_176:\n                /* \"#utility.yul\":7892:7898   */\n              dup5\n                /* \"#utility.yul\":7885:7889   */\n              dup5\n                /* \"#utility.yul\":7879:7890   */\n              sload\n                /* \"#utility.yul\":7851:7942   */\n              tag_71\n              jump\t// in\n            tag_175:\n                /* \"#utility.yul\":7845:7849   */\n              dup3\n                /* \"#utility.yul\":7838:7943   */\n              sstore\n                /* \"#utility.yul\":7756:7949   */\n              pop\n                /* \"#utility.yul\":7680:7949   */\n              pop\n              pop\n              pop\n              jump\t// out\n                /* \"#utility.yul\":7955:8028   */\n            tag_76:\n                /* \"#utility.yul\":8000:8003   */\n              0x00\n                /* \"#utility.yul\":7955:8028   */\n              swap1\n              jump\t// out\n                /* \"#utility.yul\":8034:8223   */\n            tag_77:\n                /* \"#utility.yul\":8111:8143   */\n              tag_179\n              tag_76\n              jump\t// in\n            tag_179:\n                /* \"#utility.yul\":8152:8217   */\n              tag_180\n                /* \"#utility.yul\":8210:8216   */\n              dup2\n                /* \"#utility.yul\":8202:8208   */\n              dup5\n                /* \"#utility.yul\":8196:8200   */\n              dup5\n                /* \"#utility.yul\":8152:8217   */\n              tag_75\n              jump\t// in\n            tag_180:\n                /* \"#utility.yul\":8087:8223   */\n              pop\n                /* \"#utility.yul\":8034:8223   */\n              pop\n              pop\n              jump\t// out\n                /* \"#utility.yul\":8229:8415   */\n            tag_78:\n                /* \"#utility.yul\":8289:8409   */\n            tag_182:\n                /* \"#utility.yul\":8306:8309   */\n              dup2\n                /* \"#utility.yul\":8299:8304   */\n              dup2\n                /* \"#utility.yul\":8296:8310   */\n              lt\n                /* \"#utility.yul\":8289:8409   */\n              iszero\n              tag_184\n              jumpi\n                /* \"#utility.yul\":8360:8399   */\n              tag_185\n                /* \"#utility.yul\":8397:8398   */\n              0x00\n                /* \"#utility.yul\":8390:8395   */\n              dup3\n                /* \"#utility.yul\":8360:8399   */\n              tag_77\n              jump\t// in\n            tag_185:\n                /* \"#utility.yul\":8333:8334   */\n              0x01\n                /* \"#utility.yul\":8326:8331   */\n              dup2\n                /* \"#utility.yul\":8322:8335   */\n              add\n                /* \"#utility.yul\":8313:8335   */\n              swap1\n              pop\n                /* \"#utility.yul\":8289:8409   */\n              jump(tag_182)\n            tag_184:\n                /* \"#utility.yul\":8229:8415   */\n              pop\n              pop\n              jump\t// out\n                /* \"#utility.yul\":8421:8964   */\n            tag_79:\n                /* \"#utility.yul\":8522:8524   */\n              0x1f\n                /* \"#utility.yul\":8517:8520   */\n              dup3\n                /* \"#utility.yul\":8514:8525   */\n              gt\n                /* \"#utility.yul\":8511:8957   */\n              iszero\n              tag_187\n              jumpi\n                /* \"#utility.yul\":8556:8594   */\n              tag_188\n                /* \"#utility.yul\":8588:8593   */\n              dup2\n                /* \"#utility.yul\":8556:8594   */\n              tag_68\n              jump\t// in\n            tag_188:\n                /* \"#utility.yul\":8640:8669   */\n              tag_189\n                /* \"#utility.yul\":8658:8668   */\n              dup5\n                /* \"#utility.yul\":8640:8669   */\n              tag_69\n              jump\t// in\n            tag_189:\n                /* \"#utility.yul\":8630:8638   */\n              dup2\n                /* \"#utility.yul\":8626:8670   */\n              add\n                /* \"#utility.yul\":8823:8825   */\n              0x20\n                /* \"#utility.yul\":8811:8821   */\n              dup6\n                /* \"#utility.yul\":8808:8826   */\n              lt\n                /* \"#utility.yul\":8805:8854   */\n              iszero\n              tag_190\n              jumpi\n                /* \"#utility.yul\":8844:8852   */\n              dup2\n                /* \"#utility.yul\":8829:8852   */\n              swap1\n              pop\n                /* \"#utility.yul\":8805:8854   */\n            tag_190:\n                /* \"#utility.yul\":8867:8947   */\n              tag_191\n                /* \"#utility.yul\":8923:8945   */\n              tag_192\n                /* \"#utility.yul\":8941:8944   */\n              dup6\n                /* \"#utility.yul\":8923:8945   */\n              tag_69\n              jump\t// in\n            tag_192:\n                /* \"#utility.yul\":8913:8921   */\n              dup4\n                /* \"#utility.yul\":8909:8946   */\n              add\n                /* \"#utility.yul\":8896:8907   */\n              dup3\n                /* \"#utility.yul\":8867:8947   */\n              tag_78\n              jump\t// in\n            tag_191:\n                /* \"#utility.yul\":8526:8957   */\n              pop\n              pop\n                /* \"#utility.yul\":8511:8957   */\n            tag_187:\n                /* \"#utility.yul\":8421:8964   */\n              pop\n              pop\n              pop\n              jump\t// out\n                /* \"#utility.yul\":8970:9087   */\n            tag_80:\n                /* \"#utility.yul\":9024:9032   */\n              0x00\n                /* \"#utility.yul\":9074:9079   */\n              dup3\n                /* \"#utility.yul\":9068:9072   */\n              dup3\n                /* \"#utility.yul\":9064:9080   */\n              shr\n                /* \"#utility.yul\":9043:9080   */\n              swap1\n              pop\n                /* \"#utility.yul\":8970:9087   */\n              swap3\n              swap2\n              pop\n              pop\n              jump\t// out\n                /* \"#utility.yul\":9093:9262   */\n            tag_81:\n                /* \"#utility.yul\":9137:9143   */\n              0x00\n                /* \"#utility.yul\":9170:9221   */\n              tag_195\n                /* \"#utility.yul\":9218:9219   */\n              0x00\n                /* \"#utility.yul\":9214:9220   */\n              not\n                /* \"#utility.yul\":9206:9211   */\n              dup5\n                /* \"#utility.yul\":9203:9204   */\n              0x08\n                /* \"#utility.yul\":9199:9212   */\n              mul\n                /* \"#utility.yul\":9170:9221   */\n              tag_80\n              jump\t// in\n            tag_195:\n                /* \"#utility.yul\":9166:9222   */\n              not\n                /* \"#utility.yul\":9251:9255   */\n              dup1\n                /* \"#utility.yul\":9245:9249   */\n              dup4\n                /* \"#utility.yul\":9241:9256   */\n              and\n                /* \"#utility.yul\":9231:9256   */\n              swap2\n              pop\n                /* \"#utility.yul\":9144:9262   */\n              pop\n                /* \"#utility.yul\":9093:9262   */\n              swap3\n              swap2\n              pop\n              pop\n              jump\t// out\n                /* \"#utility.yul\":9267:9562   */\n            tag_82:\n                /* \"#utility.yul\":9343:9347   */\n              0x00\n                /* \"#utility.yul\":9489:9518   */\n              tag_197\n                /* \"#utility.yul\":9514:9517   */\n              dup4\n                /* \"#utility.yul\":9508:9512   */\n              dup4\n                /* \"#utility.yul\":9489:9518   */\n              tag_81\n              jump\t// in\n            tag_197:\n                /* \"#utility.yul\":9481:9518   */\n              swap2\n              pop\n                /* \"#utility.yul\":9551:9554   */\n              dup3\n                /* \"#utility.yul\":9548:9549   */\n              0x02\n                /* \"#utility.yul\":9544:9555   */\n              mul\n                /* \"#utility.yul\":9538:9542   */\n              dup3\n                /* \"#utility.yul\":9535:9556   */\n              or\n                /* \"#utility.yul\":9527:9556   */\n              swap1\n              pop\n                /* \"#utility.yul\":9267:9562   */\n              swap3\n              swap2\n              pop\n              pop\n              jump\t// out\n                /* \"#utility.yul\":9567:10962   */\n            tag_43:\n                /* \"#utility.yul\":9684:9721   */\n              tag_199\n                /* \"#utility.yul\":9717:9720   */\n              dup3\n                /* \"#utility.yul\":9684:9721   */\n              tag_53\n              jump\t// in\n            tag_199:\n                /* \"#utility.yul\":9786:9804   */\n              0xffffffffffffffff\n                /* \"#utility.yul\":9778:9784   */\n              dup2\n                /* \"#utility.yul\":9775:9805   */\n              gt\n                /* \"#utility.yul\":9772:9828   */\n              iszero\n              tag_200\n              jumpi\n                /* \"#utility.yul\":9808:9826   */\n              tag_201\n              tag_60\n              jump\t// in\n            tag_201:\n                /* \"#utility.yul\":9772:9828   */\n            tag_200:\n                /* \"#utility.yul\":9852:9890   */\n              tag_202\n                /* \"#utility.yul\":9884:9888   */\n              dup3\n                /* \"#utility.yul\":9878:9889   */\n              sload\n                /* \"#utility.yul\":9852:9890   */\n              tag_33\n              jump\t// in\n            tag_202:\n                /* \"#utility.yul\":9937:10004   */\n              tag_203\n                /* \"#utility.yul\":9997:10003   */\n              dup3\n                /* \"#utility.yul\":9989:9995   */\n              dup3\n                /* \"#utility.yul\":9983:9987   */\n              dup6\n                /* \"#utility.yul\":9937:10004   */\n              tag_79\n              jump\t// in\n            tag_203:\n                /* \"#utility.yul\":10031:10032   */\n              0x00\n                /* \"#utility.yul\":10055:10059   */\n              0x20\n                /* \"#utility.yul\":10042:10059   */\n              swap1\n              pop\n                /* \"#utility.yul\":10087:10089   */\n              0x1f\n                /* \"#utility.yul\":10079:10085   */\n              dup4\n                /* \"#utility.yul\":10076:10090   */\n              gt\n                /* \"#utility.yul\":10104:10105   */\n              0x01\n                /* \"#utility.yul\":10099:10717   */\n              dup2\n              eq\n              tag_205\n              jumpi\n                /* \"#utility.yul\":10761:10762   */\n              0x00\n                /* \"#utility.yul\":10778:10784   */\n              dup5\n                /* \"#utility.yul\":10775:10852   */\n              iszero\n              tag_206\n              jumpi\n                /* \"#utility.yul\":10827:10836   */\n              dup3\n                /* \"#utility.yul\":10822:10825   */\n              dup8\n                /* \"#utility.yul\":10818:10837   */\n              add\n                /* \"#utility.yul\":10812:10838   */\n              mload\n                /* \"#utility.yul\":10803:10838   */\n              swap1\n              pop\n                /* \"#utility.yul\":10775:10852   */\n            tag_206:\n                /* \"#utility.yul\":10878:10945   */\n              tag_207\n                /* \"#utility.yul\":10938:10944   */\n              dup6\n                /* \"#utility.yul\":10931:10936   */\n              dup3\n                /* \"#utility.yul\":10878:10945   */\n              tag_82\n              jump\t// in\n            tag_207:\n                /* \"#utility.yul\":10872:10876   */\n              dup7\n                /* \"#utility.yul\":10865:10946   */\n              sstore\n                /* \"#utility.yul\":10734:10956   */\n              pop\n                /* \"#utility.yul\":10069:10956   */\n              jump(tag_204)\n                /* \"#utility.yul\":10099:10717   */\n            tag_205:\n                /* \"#utility.yul\":10151:10155   */\n              0x1f\n                /* \"#utility.yul\":10147:10156   */\n              not\n                /* \"#utility.yul\":10139:10145   */\n              dup5\n                /* \"#utility.yul\":10135:10157   */\n              and\n                /* \"#utility.yul\":10185:10222   */\n              tag_208\n                /* \"#utility.yul\":10217:10221   */\n              dup7\n                /* \"#utility.yul\":10185:10222   */\n              tag_68\n              jump\t// in\n            tag_208:\n                /* \"#utility.yul\":10244:10245   */\n              0x00\n                /* \"#utility.yul\":10258:10466   */\n            tag_209:\n                /* \"#utility.yul\":10272:10279   */\n              dup3\n                /* \"#utility.yul\":10269:10270   */\n              dup2\n                /* \"#utility.yul\":10266:10280   */\n              lt\n                /* \"#utility.yul\":10258:10466   */\n              iszero\n              tag_211\n              jumpi\n                /* \"#utility.yul\":10351:10360   */\n              dup5\n                /* \"#utility.yul\":10346:10349   */\n              dup10\n                /* \"#utility.yul\":10342:10361   */\n              add\n                /* \"#utility.yul\":10336:10362   */\n              mload\n                /* \"#utility.yul\":10328:10334   */\n              dup3\n                /* \"#utility.yul\":10321:10363   */\n              sstore\n                /* \"#utility.yul\":10402:10403   */\n              0x01\n                /* \"#utility.yul\":10394:10400   */\n              dup3\n                /* \"#utility.yul\":10390:10404   */\n              add\n                /* \"#utility.yul\":10380:10404   */\n              swap2\n              pop\n                /* \"#utility.yul\":10449:10451   */\n              0x20\n                /* \"#utility.yul\":10438:10447   */\n              dup6\n                /* \"#utility.yul\":10434:10452   */\n              add\n                /* \"#utility.yul\":10421:10452   */\n              swap5\n              pop\n                /* \"#utility.yul\":10295:10299   */\n              0x20\n                /* \"#utility.yul\":10292:10293   */\n              dup2\n                /* \"#utility.yul\":10288:10300   */\n              add\n                /* \"#utility.yul\":10283:10300   */\n              swap1\n              pop\n                /* \"#utility.yul\":10258:10466   */\n              jump(tag_209)\n            tag_211:\n                /* \"#utility.yul\":10494:10500   */\n              dup7\n                /* \"#utility.yul\":10485:10492   */\n              dup4\n                /* \"#utility.yul\":10482:10501   */\n              lt\n                /* \"#utility.yul\":10479:10658   */\n              iszero\n              tag_212\n              jumpi\n                /* \"#utility.yul\":10552:10561   */\n              dup5\n                /* \"#utility.yul\":10547:10550   */\n              dup10\n                /* \"#utility.yul\":10543:10562   */\n              add\n                /* \"#utility.yul\":10537:10563   */\n              mload\n                /* \"#utility.yul\":10595:10643   */\n              tag_213\n                /* \"#utility.yul\":10637:10641   */\n              0x1f\n                /* \"#utility.yul\":10629:10635   */\n              dup10\n                /* \"#utility.yul\":10625:10642   */\n              and\n                /* \"#utility.yul\":10614:10623   */\n              dup3\n                /* \"#utility.yul\":10595:10643   */\n              tag_81\n              jump\t// in\n            tag_213:\n                /* \"#utility.yul\":10587:10593   */\n              dup4\n                /* \"#utility.yul\":10580:10644   */\n              sstore\n                /* \"#utility.yul\":10502:10658   */\n              pop\n                /* \"#utility.yul\":10479:10658   */\n            tag_212:\n                /* \"#utility.yul\":10704:10705   */\n              0x01\n                /* \"#utility.yul\":10700:10701   */\n              0x02\n                /* \"#utility.yul\":10692:10698   */\n              dup9\n                /* \"#utility.yul\":10688:10702   */\n              mul\n                /* \"#utility.yul\":10684:10706   */\n              add\n                /* \"#utility.yul\":10678:10682   */\n              dup9\n                /* \"#utility.yul\":10671:10707   */\n              sstore\n                /* \"#utility.yul\":10106:10717   */\n              pop\n              pop\n              pop\n                /* \"#utility.yul\":10069:10956   */\n            tag_204:\n              pop\n                /* \"#utility.yul\":9659:10962   */\n              pop\n              pop\n              pop\n                /* \"#utility.yul\":9567:10962   */\n              pop\n              pop\n              jump\t// out\n                /* \"#utility.yul\":10968:11116   */\n            tag_83:\n                /* \"#utility.yul\":11070:11081   */\n              0x00\n                /* \"#utility.yul\":11107:11110   */\n              dup2\n                /* \"#utility.yul\":11092:11110   */\n              swap1\n              pop\n                /* \"#utility.yul\":10968:11116   */\n              swap3\n              swap2\n              pop\n              pop\n              jump\t// out\n                /* \"#utility.yul\":11122:11512   */\n            tag_84:\n                /* \"#utility.yul\":11228:11231   */\n              0x00\n                /* \"#utility.yul\":11256:11295   */\n              tag_216\n                /* \"#utility.yul\":11289:11294   */\n              dup3\n                /* \"#utility.yul\":11256:11295   */\n              tag_53\n              jump\t// in\n            tag_216:\n                /* \"#utility.yul\":11311:11400   */\n              tag_217\n                /* \"#utility.yul\":11393:11399   */\n              dup2\n                /* \"#utility.yul\":11388:11391   */\n              dup6\n                /* \"#utility.yul\":11311:11400   */\n              tag_83\n              jump\t// in\n            tag_217:\n                /* \"#utility.yul\":11304:11400   */\n              swap4\n              pop\n                /* \"#utility.yul\":11409:11474   */\n              tag_218\n                /* \"#utility.yul\":11467:11473   */\n              dup2\n                /* \"#utility.yul\":11462:11465   */\n              dup6\n                /* \"#utility.yul\":11455:11459   */\n              0x20\n                /* \"#utility.yul\":11448:11453   */\n              dup7\n                /* \"#utility.yul\":11444:11460   */\n              add\n                /* \"#utility.yul\":11409:11474   */\n              tag_55\n              jump\t// in\n            tag_218:\n                /* \"#utility.yul\":11499:11505   */\n              dup1\n                /* \"#utility.yul\":11494:11497   */\n              dup5\n                /* \"#utility.yul\":11490:11506   */\n              add\n                /* \"#utility.yul\":11483:11506   */\n              swap2\n              pop\n                /* \"#utility.yul\":11232:11512   */\n              pop\n                /* \"#utility.yul\":11122:11512   */\n              swap3\n              swap2\n              pop\n              pop\n              jump\t// out\n                /* \"#utility.yul\":11518:11793   */\n            tag_45:\n                /* \"#utility.yul\":11650:11653   */\n              0x00\n                /* \"#utility.yul\":11672:11767   */\n              tag_220\n                /* \"#utility.yul\":11763:11766   */\n              dup3\n                /* \"#utility.yul\":11754:11760   */\n              dup5\n                /* \"#utility.yul\":11672:11767   */\n              tag_84\n              jump\t// in\n            tag_220:\n                /* \"#utility.yul\":11665:11767   */\n              swap2\n              pop\n                /* \"#utility.yul\":11784:11787   */\n              dup2\n                /* \"#utility.yul\":11777:11787   */\n              swap1\n              pop\n                /* \"#utility.yul\":11518:11793   */\n              swap3\n              swap2\n              pop\n              pop\n              jump\t// out\n\n            auxdata: 0xa2646970667358221220f065e0a3583e4f61cab086d425cadc802d07382e1a1b21f66114526dd59531e464736f6c63430008120033\n        }\n    }\n\n    auxdata: 0xa2646970667358221220523e65c4acc448e61f32d0d7d75e3ec82714c6d3a1436c0b43eec0cb6bc0400164736f6c63430008120033\n}\n",
				"bytecode": {
					"linkReferences": {},
					"object": "608060405234801561001057600080fd5b50610e86806100206000396000f3fe608060405234801561001057600080fd5b506004361061004c5760003560e01c80631563700f146100515780631dda65411461006d578063b191af4e14610077578063c5f19c20146100a7575b600080fd5b61006b60048036038101906100669190610353565b6100d7565b005b610075610184565b005b610091600480360381019061008c9190610393565b610217565b60405161009e919061043f565b60405180910390f35b6100c160048036038101906100bc9190610393565b610256565b6040516100ce9190610469565b60405180910390f35b600082815481106100eb576100ea610484565b5b9060005260206000200160009054906101000a900473ffffffffffffffffffffffffffffffffffffffff1673ffffffffffffffffffffffffffffffffffffffff16636057361d826040518263ffffffff1660e01b815260040161014e9190610469565b600060405180830381600087803b15801561016857600080fd5b505af115801561017c573d6000803e3d6000fd5b505050505050565b60006040516101929061030b565b604051809103906000f0801580156101ae573d6000803e3d6000fd5b5090506000819080600181540180825580915050600190039060005260206000200160009091909190916101000a81548173ffffffffffffffffffffffffffffffffffffffff021916908373ffffffffffffffffffffffffffffffffffffffff16021790555050565b6000818154811061022757600080fd5b906000526020600020016000915054906101000a900473ffffffffffffffffffffffffffffffffffffffff1681565b600080828154811061026b5761026a610484565b5b9060005260206000200160009054906101000a900473ffffffffffffffffffffffffffffffffffffffff1673ffffffffffffffffffffffffffffffffffffffff16632e64cec16040518163ffffffff1660e01b8152600401602060405180830381865afa1580156102e0573d6000803e3d6000fd5b505050506040513d601f19601f8201168201806040525081019061030491906104c8565b9050919050565b61095b806104f683390190565b600080fd5b6000819050919050565b6103308161031d565b811461033b57600080fd5b50565b60008135905061034d81610327565b92915050565b6000806040838503121561036a57610369610318565b5b60006103788582860161033e565b92505060206103898582860161033e565b9150509250929050565b6000602082840312156103a9576103a8610318565b5b60006103b78482850161033e565b91505092915050565b600073ffffffffffffffffffffffffffffffffffffffff82169050919050565b6000819050919050565b60006104056104006103fb846103c0565b6103e0565b6103c0565b9050919050565b6000610417826103ea565b9050919050565b60006104298261040c565b9050919050565b6104398161041e565b82525050565b60006020820190506104546000830184610430565b92915050565b6104638161031d565b82525050565b600060208201905061047e600083018461045a565b92915050565b7f4e487b7100000000000000000000000000000000000000000000000000000000600052603260045260246000fd5b6000815190506104c281610327565b92915050565b6000602082840312156104de576104dd610318565b5b60006104ec848285016104b3565b9150509291505056fe608060405234801561001057600080fd5b5061093b806100206000396000f3fe608060405234801561001057600080fd5b50600436106100575760003560e01c8063186c39d01461005c5780632e64cec11461008d5780636057361d146100ab5780636f760f41146100c7578063f51d18a1146100e3575b600080fd5b610076600480360381019061007191906102e3565b610113565b6040516100849291906103af565b60405180910390f35b6100956101cf565b6040516100a291906103df565b60405180910390f35b6100c560048036038101906100c091906102e3565b6101d8565b005b6100e160048036038101906100dc919061052f565b6101e2565b005b6100fd60048036038101906100f8919061058b565b61026b565b60405161010a91906103df565b60405180910390f35b6002818154811061012357600080fd5b906000526020600020906002020160009150905080600001549080600101805461014c90610603565b80601f016020809104026020016040519081016040528092919081815260200182805461017890610603565b80156101c55780601f1061019a576101008083540402835291602001916101c5565b820191906000526020600020905b8154815290600101906020018083116101a857829003601f168201915b5050505050905082565b60008054905090565b8060008190555050565b6002604051806040016040528083815260200184815250908060018154018082558091505060019003906000526020600020906002020160009091909190915060008201518160000155602082015181600101908161024191906107e0565b5050508060018360405161025591906108ee565b9081526020016040518091039020819055505050565b6001818051602081018201805184825260208301602085012081835280955050505050506000915090505481565b6000604051905090565b600080fd5b600080fd5b6000819050919050565b6102c0816102ad565b81146102cb57600080fd5b50565b6000813590506102dd816102b7565b92915050565b6000602082840312156102f9576102f86102a3565b5b6000610307848285016102ce565b91505092915050565b610319816102ad565b82525050565b600081519050919050565b600082825260208201905092915050565b60005b8381101561035957808201518184015260208101905061033e565b60008484015250505050565b6000601f19601f8301169050919050565b60006103818261031f565b61038b818561032a565b935061039b81856020860161033b565b6103a481610365565b840191505092915050565b60006040820190506103c46000830185610310565b81810360208301526103d68184610376565b90509392505050565b60006020820190506103f46000830184610310565b92915050565b600080fd5b600080fd5b7f4e487b7100000000000000000000000000000000000000000000000000000000600052604160045260246000fd5b61043c82610365565b810181811067ffffffffffffffff8211171561045b5761045a610404565b5b80604052505050565b600061046e610299565b905061047a8282610433565b919050565b600067ffffffffffffffff82111561049a57610499610404565b5b6104a382610365565b9050602081019050919050565b82818337600083830152505050565b60006104d26104cd8461047f565b610464565b9050828152602081018484840111156104ee576104ed6103ff565b5b6104f98482856104b0565b509392505050565b600082601f830112610516576105156103fa565b5b81356105268482602086016104bf565b91505092915050565b60008060408385031215610546576105456102a3565b5b600083013567ffffffffffffffff811115610564576105636102a8565b5b61057085828601610501565b9250506020610581858286016102ce565b9150509250929050565b6000602082840312156105a1576105a06102a3565b5b600082013567ffffffffffffffff8111156105bf576105be6102a8565b5b6105cb84828501610501565b91505092915050565b7f4e487b7100000000000000000000000000000000000000000000000000000000600052602260045260246000fd5b6000600282049050600182168061061b57607f821691505b60208210810361062e5761062d6105d4565b5b50919050565b60008190508160005260206000209050919050565b60006020601f8301049050919050565b600082821b905092915050565b6000600883026106967fffffffffffffffffffffffffffffffffffffffffffffffffffffffffffffffff82610659565b6106a08683610659565b95508019841693508086168417925050509392505050565b6000819050919050565b60006106dd6106d86106d3846102ad565b6106b8565b6102ad565b9050919050565b6000819050919050565b6106f7836106c2565b61070b610703826106e4565b848454610666565b825550505050565b600090565b610720610713565b61072b8184846106ee565b505050565b5b8181101561074f57610744600082610718565b600181019050610731565b5050565b601f8211156107945761076581610634565b61076e84610649565b8101602085101561077d578190505b61079161078985610649565b830182610730565b50505b505050565b600082821c905092915050565b60006107b760001984600802610799565b1980831691505092915050565b60006107d083836107a6565b9150826002028217905092915050565b6107e98261031f565b67ffffffffffffffff81111561080257610801610404565b5b61080c8254610603565b610817828285610753565b600060209050601f83116001811461084a5760008415610838578287015190505b61084285826107c4565b8655506108aa565b601f19841661085886610634565b60005b828110156108805784890151825560018201915060208501945060208101905061085b565b8683101561089d5784890151610899601f8916826107a6565b8355505b6001600288020188555050505b505050505050565b600081905092915050565b60006108c88261031f565b6108d281856108b2565b93506108e281856020860161033b565b80840191505092915050565b60006108fa82846108bd565b91508190509291505056fea2646970667358221220f065e0a3583e4f61cab086d425cadc802d07382e1a1b21f66114526dd59531e464736f6c63430008120033a2646970667358221220523e65c4acc448e61f32d0d7d75e3ec82714c6d3a1436c0b43eec0cb6bc0400164736f6c63430008120033",
					"opcodes": "PUSH1 0x80 PUSH1 0x40 MSTORE CALLVALUE DUP1 ISZERO PUSH2 0x10 JUMPI PUSH1 0x0 DUP1 REVERT JUMPDEST POP PUSH2 0xE86 DUP1 PUSH2 0x20 PUSH1 0x0 CODECOPY PUSH1 0x0 RETURN INVALID PUSH1 0x80 PUSH1 0x40 MSTORE CALLVALUE DUP1 ISZERO PUSH2 0x10 JUMPI PUSH1 0x0 DUP1 REVERT JUMPDEST POP PUSH1 0x4 CALLDATASIZE LT PUSH2 0x4C JUMPI PUSH1 0x0 CALLDATALOAD PUSH1 0xE0 SHR DUP1 PUSH4 0x1563700F EQ PUSH2 0x51 JUMPI DUP1 PUSH4 0x1DDA6541 EQ PUSH2 0x6D JUMPI DUP1 PUSH4 0xB191AF4E EQ PUSH2 0x77 JUMPI DUP1 PUSH4 0xC5F19C20 EQ PUSH2 0xA7 JUMPI JUMPDEST PUSH1 0x0 DUP1 REVERT JUMPDEST PUSH2 0x6B PUSH1 0x4 DUP1 CALLDATASIZE SUB DUP2 ADD SWAP1 PUSH2 0x66 SWAP2 SWAP1 PUSH2 0x353 JUMP JUMPDEST PUSH2 0xD7 JUMP JUMPDEST STOP JUMPDEST PUSH2 0x75 PUSH2 0x184 JUMP JUMPDEST STOP JUMPDEST PUSH2 0x91 PUSH1 0x4 DUP1 CALLDATASIZE SUB DUP2 ADD SWAP1 PUSH2 0x8C SWAP2 SWAP1 PUSH2 0x393 JUMP JUMPDEST PUSH2 0x217 JUMP JUMPDEST PUSH1 0x40 MLOAD PUSH2 0x9E SWAP2 SWAP1 PUSH2 0x43F JUMP JUMPDEST PUSH1 0x40 MLOAD DUP1 SWAP2 SUB SWAP1 RETURN JUMPDEST PUSH2 0xC1 PUSH1 0x4 DUP1 CALLDATASIZE SUB DUP2 ADD SWAP1 PUSH2 0xBC SWAP2 SWAP1 PUSH2 0x393 JUMP JUMPDEST PUSH2 0x256 JUMP JUMPDEST PUSH1 0x40 MLOAD PUSH2 0xCE SWAP2 SWAP1 PUSH2 0x469 JUMP JUMPDEST PUSH1 0x40 MLOAD DUP1 SWAP2 SUB SWAP1 RETURN JUMPDEST PUSH1 0x0 DUP3 DUP2 SLOAD DUP2 LT PUSH2 0xEB JUMPI PUSH2 0xEA PUSH2 0x484 JUMP JUMPDEST JUMPDEST SWAP1 PUSH1 0x0 MSTORE PUSH1 0x20 PUSH1 0x0 KECCAK256 ADD PUSH1 0x0 SWAP1 SLOAD SWAP1 PUSH2 0x100 EXP SWAP1 DIV PUSH20 0xFFFFFFFFFFFFFFFFFFFFFFFFFFFFFFFFFFFFFFFF AND PUSH20 0xFFFFFFFFFFFFFFFFFFFFFFFFFFFFFFFFFFFFFFFF AND PUSH4 0x6057361D DUP3 PUSH1 0x40 MLOAD DUP3 PUSH4 0xFFFFFFFF AND PUSH1 0xE0 SHL DUP2 MSTORE PUSH1 0x4 ADD PUSH2 0x14E SWAP2 SWAP1 PUSH2 0x469 JUMP JUMPDEST PUSH1 0x0 PUSH1 0x40 MLOAD DUP1 DUP4 SUB DUP2 PUSH1 0x0 DUP8 DUP1 EXTCODESIZE ISZERO DUP1 ISZERO PUSH2 0x168 JUMPI PUSH1 0x0 DUP1 REVERT JUMPDEST POP GAS CALL ISZERO DUP1 ISZERO PUSH2 0x17C JUMPI RETURNDATASIZE PUSH1 0x0 DUP1 RETURNDATACOPY RETURNDATASIZE PUSH1 0x0 REVERT JUMPDEST POP POP POP POP POP POP JUMP JUMPDEST PUSH1 0x0 PUSH1 0x40 MLOAD PUSH2 0x192 SWAP1 PUSH2 0x30B JUMP JUMPDEST PUSH1 0x40 MLOAD DUP1 SWAP2 SUB SWAP1 PUSH1 0x0 CREATE DUP1 ISZERO DUP1 ISZERO PUSH2 0x1AE JUMPI RETURNDATASIZE PUSH1 0x0 DUP1 RETURNDATACOPY RETURNDATASIZE PUSH1 0x0 REVERT JUMPDEST POP SWAP1 POP PUSH1 0x0 DUP2 SWAP1 DUP1 PUSH1 0x1 DUP2 SLOAD ADD DUP1 DUP3 SSTORE DUP1 SWAP2 POP POP PUSH1 0x1 SWAP1 SUB SWAP1 PUSH1 0x0 MSTORE PUSH1 0x20 PUSH1 0x0 KECCAK256 ADD PUSH1 0x0 SWAP1 SWAP2 SWAP1 SWAP2 SWAP1 SWAP2 PUSH2 0x100 EXP DUP2 SLOAD DUP2 PUSH20 0xFFFFFFFFFFFFFFFFFFFFFFFFFFFFFFFFFFFFFFFF MUL NOT AND SWAP1 DUP4 PUSH20 0xFFFFFFFFFFFFFFFFFFFFFFFFFFFFFFFFFFFFFFFF AND MUL OR SWAP1 SSTORE POP POP JUMP JUMPDEST PUSH1 0x0 DUP2 DUP2 SLOAD DUP2 LT PUSH2 0x227 JUMPI PUSH1 0x0 DUP1 REVERT JUMPDEST SWAP1 PUSH1 0x0 MSTORE PUSH1 0x20 PUSH1 0x0 KECCAK256 ADD PUSH1 0x0 SWAP2 POP SLOAD SWAP1 PUSH2 0x100 EXP SWAP1 DIV PUSH20 0xFFFFFFFFFFFFFFFFFFFFFFFFFFFFFFFFFFFFFFFF AND DUP2 JUMP JUMPDEST PUSH1 0x0 DUP1 DUP3 DUP2 SLOAD DUP2 LT PUSH2 0x26B JUMPI PUSH2 0x26A PUSH2 0x484 JUMP JUMPDEST JUMPDEST SWAP1 PUSH1 0x0 MSTORE PUSH1 0x20 PUSH1 0x0 KECCAK256 ADD PUSH1 0x0 SWAP1 SLOAD SWAP1 PUSH2 0x100 EXP SWAP1 DIV PUSH20 0xFFFFFFFFFFFFFFFFFFFFFFFFFFFFFFFFFFFFFFFF AND PUSH20 0xFFFFFFFFFFFFFFFFFFFFFFFFFFFFFFFFFFFFFFFF AND PUSH4 0x2E64CEC1 PUSH1 0x40 MLOAD DUP2 PUSH4 0xFFFFFFFF AND PUSH1 0xE0 SHL DUP2 MSTORE PUSH1 0x4 ADD PUSH1 0x20 PUSH1 0x40 MLOAD DUP1 DUP4 SUB DUP2 DUP7 GAS STATICCALL ISZERO DUP1 ISZERO PUSH2 0x2E0 JUMPI RETURNDATASIZE PUSH1 0x0 DUP1 RETURNDATACOPY RETURNDATASIZE PUSH1 0x0 REVERT JUMPDEST POP POP POP POP PUSH1 0x40 MLOAD RETURNDATASIZE PUSH1 0x1F NOT PUSH1 0x1F DUP3 ADD AND DUP3 ADD DUP1 PUSH1 0x40 MSTORE POP DUP2 ADD SWAP1 PUSH2 0x304 SWAP2 SWAP1 PUSH2 0x4C8 JUMP JUMPDEST SWAP1 POP SWAP2 SWAP1 POP JUMP JUMPDEST PUSH2 0x95B DUP1 PUSH2 0x4F6 DUP4 CODECOPY ADD SWAP1 JUMP JUMPDEST PUSH1 0x0 DUP1 REVERT JUMPDEST PUSH1 0x0 DUP2 SWAP1 POP SWAP2 SWAP1 POP JUMP JUMPDEST PUSH2 0x330 DUP2 PUSH2 0x31D JUMP JUMPDEST DUP2 EQ PUSH2 0x33B JUMPI PUSH1 0x0 DUP1 REVERT JUMPDEST POP JUMP JUMPDEST PUSH1 0x0 DUP2 CALLDATALOAD SWAP1 POP PUSH2 0x34D DUP2 PUSH2 0x327 JUMP JUMPDEST SWAP3 SWAP2 POP POP JUMP JUMPDEST PUSH1 0x0 DUP1 PUSH1 0x40 DUP4 DUP6 SUB SLT ISZERO PUSH2 0x36A JUMPI PUSH2 0x369 PUSH2 0x318 JUMP JUMPDEST JUMPDEST PUSH1 0x0 PUSH2 0x378 DUP6 DUP3 DUP7 ADD PUSH2 0x33E JUMP JUMPDEST SWAP3 POP POP PUSH1 0x20 PUSH2 0x389 DUP6 DUP3 DUP7 ADD PUSH2 0x33E JUMP JUMPDEST SWAP2 POP POP SWAP3 POP SWAP3 SWAP1 POP JUMP JUMPDEST PUSH1 0x0 PUSH1 0x20 DUP3 DUP5 SUB SLT ISZERO PUSH2 0x3A9 JUMPI PUSH2 0x3A8 PUSH2 0x318 JUMP JUMPDEST JUMPDEST PUSH1 0x0 PUSH2 0x3B7 DUP5 DUP3 DUP6 ADD PUSH2 0x33E JUMP JUMPDEST SWAP2 POP POP SWAP3 SWAP2 POP POP JUMP JUMPDEST PUSH1 0x0 PUSH20 0xFFFFFFFFFFFFFFFFFFFFFFFFFFFFFFFFFFFFFFFF DUP3 AND SWAP1 POP SWAP2 SWAP1 POP JUMP JUMPDEST PUSH1 0x0 DUP2 SWAP1 POP SWAP2 SWAP1 POP JUMP JUMPDEST PUSH1 0x0 PUSH2 0x405 PUSH2 0x400 PUSH2 0x3FB DUP5 PUSH2 0x3C0 JUMP JUMPDEST PUSH2 0x3E0 JUMP JUMPDEST PUSH2 0x3C0 JUMP JUMPDEST SWAP1 POP SWAP2 SWAP1 POP JUMP JUMPDEST PUSH1 0x0 PUSH2 0x417 DUP3 PUSH2 0x3EA JUMP JUMPDEST SWAP1 POP SWAP2 SWAP1 POP JUMP JUMPDEST PUSH1 0x0 PUSH2 0x429 DUP3 PUSH2 0x40C JUMP JUMPDEST SWAP1 POP SWAP2 SWAP1 POP JUMP JUMPDEST PUSH2 0x439 DUP2 PUSH2 0x41E JUMP JUMPDEST DUP3 MSTORE POP POP JUMP JUMPDEST PUSH1 0x0 PUSH1 0x20 DUP3 ADD SWAP1 POP PUSH2 0x454 PUSH1 0x0 DUP4 ADD DUP5 PUSH2 0x430 JUMP JUMPDEST SWAP3 SWAP2 POP POP JUMP JUMPDEST PUSH2 0x463 DUP2 PUSH2 0x31D JUMP JUMPDEST DUP3 MSTORE POP POP JUMP JUMPDEST PUSH1 0x0 PUSH1 0x20 DUP3 ADD SWAP1 POP PUSH2 0x47E PUSH1 0x0 DUP4 ADD DUP5 PUSH2 0x45A JUMP JUMPDEST SWAP3 SWAP2 POP POP JUMP JUMPDEST PUSH32 0x4E487B7100000000000000000000000000000000000000000000000000000000 PUSH1 0x0 MSTORE PUSH1 0x32 PUSH1 0x4 MSTORE PUSH1 0x24 PUSH1 0x0 REVERT JUMPDEST PUSH1 0x0 DUP2 MLOAD SWAP1 POP PUSH2 0x4C2 DUP2 PUSH2 0x327 JUMP JUMPDEST SWAP3 SWAP2 POP POP JUMP JUMPDEST PUSH1 0x0 PUSH1 0x20 DUP3 DUP5 SUB SLT ISZERO PUSH2 0x4DE JUMPI PUSH2 0x4DD PUSH2 0x318 JUMP JUMPDEST JUMPDEST PUSH1 0x0 PUSH2 0x4EC DUP5 DUP3 DUP6 ADD PUSH2 0x4B3 JUMP JUMPDEST SWAP2 POP POP SWAP3 SWAP2 POP POP JUMP INVALID PUSH1 0x80 PUSH1 0x40 MSTORE CALLVALUE DUP1 ISZERO PUSH2 0x10 JUMPI PUSH1 0x0 DUP1 REVERT JUMPDEST POP PUSH2 0x93B DUP1 PUSH2 0x20 PUSH1 0x0 CODECOPY PUSH1 0x0 RETURN INVALID PUSH1 0x80 PUSH1 0x40 MSTORE CALLVALUE DUP1 ISZERO PUSH2 0x10 JUMPI PUSH1 0x0 DUP1 REVERT JUMPDEST POP PUSH1 0x4 CALLDATASIZE LT PUSH2 0x57 JUMPI PUSH1 0x0 CALLDATALOAD PUSH1 0xE0 SHR DUP1 PUSH4 0x186C39D0 EQ PUSH2 0x5C JUMPI DUP1 PUSH4 0x2E64CEC1 EQ PUSH2 0x8D JUMPI DUP1 PUSH4 0x6057361D EQ PUSH2 0xAB JUMPI DUP1 PUSH4 0x6F760F41 EQ PUSH2 0xC7 JUMPI DUP1 PUSH4 0xF51D18A1 EQ PUSH2 0xE3 JUMPI JUMPDEST PUSH1 0x0 DUP1 REVERT JUMPDEST PUSH2 0x76 PUSH1 0x4 DUP1 CALLDATASIZE SUB DUP2 ADD SWAP1 PUSH2 0x71 SWAP2 SWAP1 PUSH2 0x2E3 JUMP JUMPDEST PUSH2 0x113 JUMP JUMPDEST PUSH1 0x40 MLOAD PUSH2 0x84 SWAP3 SWAP2 SWAP1 PUSH2 0x3AF JUMP JUMPDEST PUSH1 0x40 MLOAD DUP1 SWAP2 SUB SWAP1 RETURN JUMPDEST PUSH2 0x95 PUSH2 0x1CF JUMP JUMPDEST PUSH1 0x40 MLOAD PUSH2 0xA2 SWAP2 SWAP1 PUSH2 0x3DF JUMP JUMPDEST PUSH1 0x40 MLOAD DUP1 SWAP2 SUB SWAP1 RETURN JUMPDEST PUSH2 0xC5 PUSH1 0x4 DUP1 CALLDATASIZE SUB DUP2 ADD SWAP1 PUSH2 0xC0 SWAP2 SWAP1 PUSH2 0x2E3 JUMP JUMPDEST PUSH2 0x1D8 JUMP JUMPDEST STOP JUMPDEST PUSH2 0xE1 PUSH1 0x4 DUP1 CALLDATASIZE SUB DUP2 ADD SWAP1 PUSH2 0xDC SWAP2 SWAP1 PUSH2 0x52F JUMP JUMPDEST PUSH2 0x1E2 JUMP JUMPDEST STOP JUMPDEST PUSH2 0xFD PUSH1 0x4 DUP1 CALLDATASIZE SUB DUP2 ADD SWAP1 PUSH2 0xF8 SWAP2 SWAP1 PUSH2 0x58B JUMP JUMPDEST PUSH2 0x26B JUMP JUMPDEST PUSH1 0x40 MLOAD PUSH2 0x10A SWAP2 SWAP1 PUSH2 0x3DF JUMP JUMPDEST PUSH1 0x40 MLOAD DUP1 SWAP2 SUB SWAP1 RETURN JUMPDEST PUSH1 0x2 DUP2 DUP2 SLOAD DUP2 LT PUSH2 0x123 JUMPI PUSH1 0x0 DUP1 REVERT JUMPDEST SWAP1 PUSH1 0x0 MSTORE PUSH1 0x20 PUSH1 0x0 KECCAK256 SWAP1 PUSH1 0x2 MUL ADD PUSH1 0x0 SWAP2 POP SWAP1 POP DUP1 PUSH1 0x0 ADD SLOAD SWAP1 DUP1 PUSH1 0x1 ADD DUP1 SLOAD PUSH2 0x14C SWAP1 PUSH2 0x603 JUMP JUMPDEST DUP1 PUSH1 0x1F ADD PUSH1 0x20 DUP1 SWAP2 DIV MUL PUSH1 0x20 ADD PUSH1 0x40 MLOAD SWAP1 DUP2 ADD PUSH1 0x40 MSTORE DUP1 SWAP3 SWAP2 SWAP1 DUP2 DUP2 MSTORE PUSH1 0x20 ADD DUP3 DUP1 SLOAD PUSH2 0x178 SWAP1 PUSH2 0x603 JUMP JUMPDEST DUP1 ISZERO PUSH2 0x1C5 JUMPI DUP1 PUSH1 0x1F LT PUSH2 0x19A JUMPI PUSH2 0x100 DUP1 DUP4 SLOAD DIV MUL DUP4 MSTORE SWAP2 PUSH1 0x20 ADD SWAP2 PUSH2 0x1C5 JUMP JUMPDEST DUP3 ADD SWAP2 SWAP1 PUSH1 0x0 MSTORE PUSH1 0x20 PUSH1 0x0 KECCAK256 SWAP1 JUMPDEST DUP2 SLOAD DUP2 MSTORE SWAP1 PUSH1 0x1 ADD SWAP1 PUSH1 0x20 ADD DUP1 DUP4 GT PUSH2 0x1A8 JUMPI DUP3 SWAP1 SUB PUSH1 0x1F AND DUP3 ADD SWAP2 JUMPDEST POP POP POP POP POP SWAP1 POP DUP3 JUMP JUMPDEST PUSH1 0x0 DUP1 SLOAD SWAP1 POP SWAP1 JUMP JUMPDEST DUP1 PUSH1 0x0 DUP2 SWAP1 SSTORE POP POP JUMP JUMPDEST PUSH1 0x2 PUSH1 0x40 MLOAD DUP1 PUSH1 0x40 ADD PUSH1 0x40 MSTORE DUP1 DUP4 DUP2 MSTORE PUSH1 0x20 ADD DUP5 DUP2 MSTORE POP SWAP1 DUP1 PUSH1 0x1 DUP2 SLOAD ADD DUP1 DUP3 SSTORE DUP1 SWAP2 POP POP PUSH1 0x1 SWAP1 SUB SWAP1 PUSH1 0x0 MSTORE PUSH1 0x20 PUSH1 0x0 KECCAK256 SWAP1 PUSH1 0x2 MUL ADD PUSH1 0x0 SWAP1 SWAP2 SWAP1 SWAP2 SWAP1 SWAP2 POP PUSH1 0x0 DUP3 ADD MLOAD DUP2 PUSH1 0x0 ADD SSTORE PUSH1 0x20 DUP3 ADD MLOAD DUP2 PUSH1 0x1 ADD SWAP1 DUP2 PUSH2 0x241 SWAP2 SWAP1 PUSH2 0x7E0 JUMP JUMPDEST POP POP POP DUP1 PUSH1 0x1 DUP4 PUSH1 0x40 MLOAD PUSH2 0x255 SWAP2 SWAP1 PUSH2 0x8EE JUMP JUMPDEST SWAP1 DUP2 MSTORE PUSH1 0x20 ADD PUSH1 0x40 MLOAD DUP1 SWAP2 SUB SWAP1 KECCAK256 DUP2 SWAP1 SSTORE POP POP POP JUMP JUMPDEST PUSH1 0x1 DUP2 DUP1 MLOAD PUSH1 0x20 DUP2 ADD DUP3 ADD DUP1 MLOAD DUP5 DUP3 MSTORE PUSH1 0x20 DUP4 ADD PUSH1 0x20 DUP6 ADD KECCAK256 DUP2 DUP4 MSTORE DUP1 SWAP6 POP POP POP POP POP POP PUSH1 0x0 SWAP2 POP SWAP1 POP SLOAD DUP2 JUMP JUMPDEST PUSH1 0x0 PUSH1 0x40 MLOAD SWAP1 POP SWAP1 JUMP JUMPDEST PUSH1 0x0 DUP1 REVERT JUMPDEST PUSH1 0x0 DUP1 REVERT JUMPDEST PUSH1 0x0 DUP2 SWAP1 POP SWAP2 SWAP1 POP JUMP JUMPDEST PUSH2 0x2C0 DUP2 PUSH2 0x2AD JUMP JUMPDEST DUP2 EQ PUSH2 0x2CB JUMPI PUSH1 0x0 DUP1 REVERT JUMPDEST POP JUMP JUMPDEST PUSH1 0x0 DUP2 CALLDATALOAD SWAP1 POP PUSH2 0x2DD DUP2 PUSH2 0x2B7 JUMP JUMPDEST SWAP3 SWAP2 POP POP JUMP JUMPDEST PUSH1 0x0 PUSH1 0x20 DUP3 DUP5 SUB SLT ISZERO PUSH2 0x2F9 JUMPI PUSH2 0x2F8 PUSH2 0x2A3 JUMP JUMPDEST JUMPDEST PUSH1 0x0 PUSH2 0x307 DUP5 DUP3 DUP6 ADD PUSH2 0x2CE JUMP JUMPDEST SWAP2 POP POP SWAP3 SWAP2 POP POP JUMP JUMPDEST PUSH2 0x319 DUP2 PUSH2 0x2AD JUMP JUMPDEST DUP3 MSTORE POP POP JUMP JUMPDEST PUSH1 0x0 DUP2 MLOAD SWAP1 POP SWAP2 SWAP1 POP JUMP JUMPDEST PUSH1 0x0 DUP3 DUP3 MSTORE PUSH1 0x20 DUP3 ADD SWAP1 POP SWAP3 SWAP2 POP POP JUMP JUMPDEST PUSH1 0x0 JUMPDEST DUP4 DUP2 LT ISZERO PUSH2 0x359 JUMPI DUP1 DUP3 ADD MLOAD DUP2 DUP5 ADD MSTORE PUSH1 0x20 DUP2 ADD SWAP1 POP PUSH2 0x33E JUMP JUMPDEST PUSH1 0x0 DUP5 DUP5 ADD MSTORE POP POP POP POP JUMP JUMPDEST PUSH1 0x0 PUSH1 0x1F NOT PUSH1 0x1F DUP4 ADD AND SWAP1 POP SWAP2 SWAP1 POP JUMP JUMPDEST PUSH1 0x0 PUSH2 0x381 DUP3 PUSH2 0x31F JUMP JUMPDEST PUSH2 0x38B DUP2 DUP6 PUSH2 0x32A JUMP JUMPDEST SWAP4 POP PUSH2 0x39B DUP2 DUP6 PUSH1 0x20 DUP7 ADD PUSH2 0x33B JUMP JUMPDEST PUSH2 0x3A4 DUP2 PUSH2 0x365 JUMP JUMPDEST DUP5 ADD SWAP2 POP POP SWAP3 SWAP2 POP POP JUMP JUMPDEST PUSH1 0x0 PUSH1 0x40 DUP3 ADD SWAP1 POP PUSH2 0x3C4 PUSH1 0x0 DUP4 ADD DUP6 PUSH2 0x310 JUMP JUMPDEST DUP2 DUP2 SUB PUSH1 0x20 DUP4 ADD MSTORE PUSH2 0x3D6 DUP2 DUP5 PUSH2 0x376 JUMP JUMPDEST SWAP1 POP SWAP4 SWAP3 POP POP POP JUMP JUMPDEST PUSH1 0x0 PUSH1 0x20 DUP3 ADD SWAP1 POP PUSH2 0x3F4 PUSH1 0x0 DUP4 ADD DUP5 PUSH2 0x310 JUMP JUMPDEST SWAP3 SWAP2 POP POP JUMP JUMPDEST PUSH1 0x0 DUP1 REVERT JUMPDEST PUSH1 0x0 DUP1 REVERT JUMPDEST PUSH32 0x4E487B7100000000000000000000000000000000000000000000000000000000 PUSH1 0x0 MSTORE PUSH1 0x41 PUSH1 0x4 MSTORE PUSH1 0x24 PUSH1 0x0 REVERT JUMPDEST PUSH2 0x43C DUP3 PUSH2 0x365 JUMP JUMPDEST DUP2 ADD DUP2 DUP2 LT PUSH8 0xFFFFFFFFFFFFFFFF DUP3 GT OR ISZERO PUSH2 0x45B JUMPI PUSH2 0x45A PUSH2 0x404 JUMP JUMPDEST JUMPDEST DUP1 PUSH1 0x40 MSTORE POP POP POP JUMP JUMPDEST PUSH1 0x0 PUSH2 0x46E PUSH2 0x299 JUMP JUMPDEST SWAP1 POP PUSH2 0x47A DUP3 DUP3 PUSH2 0x433 JUMP JUMPDEST SWAP2 SWAP1 POP JUMP JUMPDEST PUSH1 0x0 PUSH8 0xFFFFFFFFFFFFFFFF DUP3 GT ISZERO PUSH2 0x49A JUMPI PUSH2 0x499 PUSH2 0x404 JUMP JUMPDEST JUMPDEST PUSH2 0x4A3 DUP3 PUSH2 0x365 JUMP JUMPDEST SWAP1 POP PUSH1 0x20 DUP2 ADD SWAP1 POP SWAP2 SWAP1 POP JUMP JUMPDEST DUP3 DUP2 DUP4 CALLDATACOPY PUSH1 0x0 DUP4 DUP4 ADD MSTORE POP POP POP JUMP JUMPDEST PUSH1 0x0 PUSH2 0x4D2 PUSH2 0x4CD DUP5 PUSH2 0x47F JUMP JUMPDEST PUSH2 0x464 JUMP JUMPDEST SWAP1 POP DUP3 DUP2 MSTORE PUSH1 0x20 DUP2 ADD DUP5 DUP5 DUP5 ADD GT ISZERO PUSH2 0x4EE JUMPI PUSH2 0x4ED PUSH2 0x3FF JUMP JUMPDEST JUMPDEST PUSH2 0x4F9 DUP5 DUP3 DUP6 PUSH2 0x4B0 JUMP JUMPDEST POP SWAP4 SWAP3 POP POP POP JUMP JUMPDEST PUSH1 0x0 DUP3 PUSH1 0x1F DUP4 ADD SLT PUSH2 0x516 JUMPI PUSH2 0x515 PUSH2 0x3FA JUMP JUMPDEST JUMPDEST DUP2 CALLDATALOAD PUSH2 0x526 DUP5 DUP3 PUSH1 0x20 DUP7 ADD PUSH2 0x4BF JUMP JUMPDEST SWAP2 POP POP SWAP3 SWAP2 POP POP JUMP JUMPDEST PUSH1 0x0 DUP1 PUSH1 0x40 DUP4 DUP6 SUB SLT ISZERO PUSH2 0x546 JUMPI PUSH2 0x545 PUSH2 0x2A3 JUMP JUMPDEST JUMPDEST PUSH1 0x0 DUP4 ADD CALLDATALOAD PUSH8 0xFFFFFFFFFFFFFFFF DUP2 GT ISZERO PUSH2 0x564 JUMPI PUSH2 0x563 PUSH2 0x2A8 JUMP JUMPDEST JUMPDEST PUSH2 0x570 DUP6 DUP3 DUP7 ADD PUSH2 0x501 JUMP JUMPDEST SWAP3 POP POP PUSH1 0x20 PUSH2 0x581 DUP6 DUP3 DUP7 ADD PUSH2 0x2CE JUMP JUMPDEST SWAP2 POP POP SWAP3 POP SWAP3 SWAP1 POP JUMP JUMPDEST PUSH1 0x0 PUSH1 0x20 DUP3 DUP5 SUB SLT ISZERO PUSH2 0x5A1 JUMPI PUSH2 0x5A0 PUSH2 0x2A3 JUMP JUMPDEST JUMPDEST PUSH1 0x0 DUP3 ADD CALLDATALOAD PUSH8 0xFFFFFFFFFFFFFFFF DUP2 GT ISZERO PUSH2 0x5BF JUMPI PUSH2 0x5BE PUSH2 0x2A8 JUMP JUMPDEST JUMPDEST PUSH2 0x5CB DUP5 DUP3 DUP6 ADD PUSH2 0x501 JUMP JUMPDEST SWAP2 POP POP SWAP3 SWAP2 POP POP JUMP JUMPDEST PUSH32 0x4E487B7100000000000000000000000000000000000000000000000000000000 PUSH1 0x0 MSTORE PUSH1 0x22 PUSH1 0x4 MSTORE PUSH1 0x24 PUSH1 0x0 REVERT JUMPDEST PUSH1 0x0 PUSH1 0x2 DUP3 DIV SWAP1 POP PUSH1 0x1 DUP3 AND DUP1 PUSH2 0x61B JUMPI PUSH1 0x7F DUP3 AND SWAP2 POP JUMPDEST PUSH1 0x20 DUP3 LT DUP2 SUB PUSH2 0x62E JUMPI PUSH2 0x62D PUSH2 0x5D4 JUMP JUMPDEST JUMPDEST POP SWAP2 SWAP1 POP JUMP JUMPDEST PUSH1 0x0 DUP2 SWAP1 POP DUP2 PUSH1 0x0 MSTORE PUSH1 0x20 PUSH1 0x0 KECCAK256 SWAP1 POP SWAP2 SWAP1 POP JUMP JUMPDEST PUSH1 0x0 PUSH1 0x20 PUSH1 0x1F DUP4 ADD DIV SWAP1 POP SWAP2 SWAP1 POP JUMP JUMPDEST PUSH1 0x0 DUP3 DUP3 SHL SWAP1 POP SWAP3 SWAP2 POP POP JUMP JUMPDEST PUSH1 0x0 PUSH1 0x8 DUP4 MUL PUSH2 0x696 PUSH32 0xFFFFFFFFFFFFFFFFFFFFFFFFFFFFFFFFFFFFFFFFFFFFFFFFFFFFFFFFFFFFFFFF DUP3 PUSH2 0x659 JUMP JUMPDEST PUSH2 0x6A0 DUP7 DUP4 PUSH2 0x659 JUMP JUMPDEST SWAP6 POP DUP1 NOT DUP5 AND SWAP4 POP DUP1 DUP7 AND DUP5 OR SWAP3 POP POP POP SWAP4 SWAP3 POP POP POP JUMP JUMPDEST PUSH1 0x0 DUP2 SWAP1 POP SWAP2 SWAP1 POP JUMP JUMPDEST PUSH1 0x0 PUSH2 0x6DD PUSH2 0x6D8 PUSH2 0x6D3 DUP5 PUSH2 0x2AD JUMP JUMPDEST PUSH2 0x6B8 JUMP JUMPDEST PUSH2 0x2AD JUMP JUMPDEST SWAP1 POP SWAP2 SWAP1 POP JUMP JUMPDEST PUSH1 0x0 DUP2 SWAP1 POP SWAP2 SWAP1 POP JUMP JUMPDEST PUSH2 0x6F7 DUP4 PUSH2 0x6C2 JUMP JUMPDEST PUSH2 0x70B PUSH2 0x703 DUP3 PUSH2 0x6E4 JUMP JUMPDEST DUP5 DUP5 SLOAD PUSH2 0x666 JUMP JUMPDEST DUP3 SSTORE POP POP POP POP JUMP JUMPDEST PUSH1 0x0 SWAP1 JUMP JUMPDEST PUSH2 0x720 PUSH2 0x713 JUMP JUMPDEST PUSH2 0x72B DUP2 DUP5 DUP5 PUSH2 0x6EE JUMP JUMPDEST POP POP POP JUMP JUMPDEST JUMPDEST DUP2 DUP2 LT ISZERO PUSH2 0x74F JUMPI PUSH2 0x744 PUSH1 0x0 DUP3 PUSH2 0x718 JUMP JUMPDEST PUSH1 0x1 DUP2 ADD SWAP1 POP PUSH2 0x731 JUMP JUMPDEST POP POP JUMP JUMPDEST PUSH1 0x1F DUP3 GT ISZERO PUSH2 0x794 JUMPI PUSH2 0x765 DUP2 PUSH2 0x634 JUMP JUMPDEST PUSH2 0x76E DUP5 PUSH2 0x649 JUMP JUMPDEST DUP2 ADD PUSH1 0x20 DUP6 LT ISZERO PUSH2 0x77D JUMPI DUP2 SWAP1 POP JUMPDEST PUSH2 0x791 PUSH2 0x789 DUP6 PUSH2 0x649 JUMP JUMPDEST DUP4 ADD DUP3 PUSH2 0x730 JUMP JUMPDEST POP POP JUMPDEST POP POP POP JUMP JUMPDEST PUSH1 0x0 DUP3 DUP3 SHR SWAP1 POP SWAP3 SWAP2 POP POP JUMP JUMPDEST PUSH1 0x0 PUSH2 0x7B7 PUSH1 0x0 NOT DUP5 PUSH1 0x8 MUL PUSH2 0x799 JUMP JUMPDEST NOT DUP1 DUP4 AND SWAP2 POP POP SWAP3 SWAP2 POP POP JUMP JUMPDEST PUSH1 0x0 PUSH2 0x7D0 DUP4 DUP4 PUSH2 0x7A6 JUMP JUMPDEST SWAP2 POP DUP3 PUSH1 0x2 MUL DUP3 OR SWAP1 POP SWAP3 SWAP2 POP POP JUMP JUMPDEST PUSH2 0x7E9 DUP3 PUSH2 0x31F JUMP JUMPDEST PUSH8 0xFFFFFFFFFFFFFFFF DUP2 GT ISZERO PUSH2 0x802 JUMPI PUSH2 0x801 PUSH2 0x404 JUMP JUMPDEST JUMPDEST PUSH2 0x80C DUP3 SLOAD PUSH2 0x603 JUMP JUMPDEST PUSH2 0x817 DUP3 DUP3 DUP6 PUSH2 0x753 JUMP JUMPDEST PUSH1 0x0 PUSH1 0x20 SWAP1 POP PUSH1 0x1F DUP4 GT PUSH1 0x1 DUP2 EQ PUSH2 0x84A JUMPI PUSH1 0x0 DUP5 ISZERO PUSH2 0x838 JUMPI DUP3 DUP8 ADD MLOAD SWAP1 POP JUMPDEST PUSH2 0x842 DUP6 DUP3 PUSH2 0x7C4 JUMP JUMPDEST DUP7 SSTORE POP PUSH2 0x8AA JUMP JUMPDEST PUSH1 0x1F NOT DUP5 AND PUSH2 0x858 DUP7 PUSH2 0x634 JUMP JUMPDEST PUSH1 0x0 JUMPDEST DUP3 DUP2 LT ISZERO PUSH2 0x880 JUMPI DUP5 DUP10 ADD MLOAD DUP3 SSTORE PUSH1 0x1 DUP3 ADD SWAP2 POP PUSH1 0x20 DUP6 ADD SWAP5 POP PUSH1 0x20 DUP2 ADD SWAP1 POP PUSH2 0x85B JUMP JUMPDEST DUP7 DUP4 LT ISZERO PUSH2 0x89D JUMPI DUP5 DUP10 ADD MLOAD PUSH2 0x899 PUSH1 0x1F DUP10 AND DUP3 PUSH2 0x7A6 JUMP JUMPDEST DUP4 SSTORE POP JUMPDEST PUSH1 0x1 PUSH1 0x2 DUP9 MUL ADD DUP9 SSTORE POP POP POP JUMPDEST POP POP POP POP POP POP JUMP JUMPDEST PUSH1 0x0 DUP2 SWAP1 POP SWAP3 SWAP2 POP POP JUMP JUMPDEST PUSH1 0x0 PUSH2 0x8C8 DUP3 PUSH2 0x31F JUMP JUMPDEST PUSH2 0x8D2 DUP2 DUP6 PUSH2 0x8B2 JUMP JUMPDEST SWAP4 POP PUSH2 0x8E2 DUP2 DUP6 PUSH1 0x20 DUP7 ADD PUSH2 0x33B JUMP JUMPDEST DUP1 DUP5 ADD SWAP2 POP POP SWAP3 SWAP2 POP POP JUMP JUMPDEST PUSH1 0x0 PUSH2 0x8FA DUP3 DUP5 PUSH2 0x8BD JUMP JUMPDEST SWAP2 POP DUP2 SWAP1 POP SWAP3 SWAP2 POP POP JUMP INVALID LOG2 PUSH5 0x6970667358 0x22 SLT KECCAK256 CREATE PUSH6 0xE0A3583E4F61 0xCA 0xB0 DUP7 0xD4 0x25 0xCA 0xDC DUP1 0x2D SMOD CODESIZE 0x2E BYTE SHL 0x21 0xF6 PUSH2 0x1452 PUSH14 0xD59531E464736F6C634300081200 CALLER LOG2 PUSH5 0x6970667358 0x22 SLT KECCAK256 MSTORE RETURNDATACOPY PUSH6 0xC4ACC448E61F ORIGIN 0xD0 0xD7 0xD7 0x5E RETURNDATACOPY 0xC8 0x27 EQ 0xC6 0xD3 LOG1 NUMBER PUSH13 0xB43EEC0CB6BC0400164736F6C PUSH4 0x43000812 STOP CALLER "
				},
				"gasEstimates": {
					"creation": {
						"codeDepositCost": "743600",
						"executionCost": "779",
						"totalCost": "744379"
					},
					"external": {
						"createSimpleStorageContract()": "infinite",
						"listOfStorageContracts(uint256)": "infinite",
						"sfGet(uint256)": "infinite",
						"sfStore(uint256,uint256)": "infinite"
					}
				},
				"methodIdentifiers": {
					"createSimpleStorageContract()": "1dda6541",
					"listOfStorageContracts(uint256)": "b191af4e",
					"sfGet(uint256)": "c5f19c20",
					"sfStore(uint256,uint256)": "1563700f"
				}
			},
			"storageLayout": {
				"storage": [
					{
						"astId": 66,
						"contract": "storageFactory.sol:storageFactory",
						"label": "listOfStorageContracts",
						"offset": 0,
						"slot": "0",
						"type": "t_array(t_contract(SimpleStorage)58)dyn_storage"
					}
				],
				"types": {
					"t_array(t_contract(SimpleStorage)58)dyn_storage": {
						"base": "t_contract(SimpleStorage)58",
						"encoding": "dynamic_array",
						"label": "contract SimpleStorage[]",
						"numberOfBytes": "32"
					},
					"t_contract(SimpleStorage)58": {
						"encoding": "inplace",
						"label": "contract SimpleStorage",
						"numberOfBytes": "20"
					}
				}
			},
			"userdoc": {
				"kind": "user",
				"methods": {},
				"version": 1
			}
		}
	}
}